{
  "_format": "hh-sol-artifact-1",
  "contractName": "AllowanceTransfer",
  "sourceName": "contracts/lib/permit2/src/AllowanceTransfer.sol",
  "abi": [
    {
      "inputs": [
        {
          "internalType": "uint256",
          "name": "deadline",
          "type": "uint256"
        }
      ],
      "name": "AllowanceExpired",
      "type": "error"
    },
    {
      "inputs": [],
      "name": "ExcessiveInvalidation",
      "type": "error"
    },
    {
      "inputs": [
        {
          "internalType": "uint256",
          "name": "amount",
          "type": "uint256"
        }
      ],
      "name": "InsufficientAllowance",
      "type": "error"
    },
    {
      "inputs": [],
      "name": "InvalidContractSignature",
      "type": "error"
    },
    {
      "inputs": [],
      "name": "InvalidNonce",
      "type": "error"
    },
    {
      "inputs": [],
      "name": "InvalidSignature",
      "type": "error"
    },
    {
      "inputs": [],
      "name": "InvalidSignatureLength",
      "type": "error"
    },
    {
      "inputs": [],
      "name": "InvalidSigner",
      "type": "error"
    },
    {
      "inputs": [
        {
          "internalType": "uint256",
          "name": "signatureDeadline",
          "type": "uint256"
        }
      ],
      "name": "SignatureExpired",
      "type": "error"
    },
    {
      "anonymous": false,
      "inputs": [
        {
          "indexed": true,
          "internalType": "address",
          "name": "owner",
          "type": "address"
        },
        {
          "indexed": true,
          "internalType": "address",
          "name": "token",
          "type": "address"
        },
        {
          "indexed": true,
          "internalType": "address",
          "name": "spender",
          "type": "address"
        },
        {
          "indexed": false,
          "internalType": "uint160",
          "name": "amount",
          "type": "uint160"
        },
        {
          "indexed": false,
          "internalType": "uint48",
          "name": "expiration",
          "type": "uint48"
        }
      ],
      "name": "Approval",
      "type": "event"
    },
    {
      "anonymous": false,
      "inputs": [
        {
          "indexed": true,
          "internalType": "address",
          "name": "owner",
          "type": "address"
        },
        {
          "indexed": false,
          "internalType": "address",
          "name": "token",
          "type": "address"
        },
        {
          "indexed": false,
          "internalType": "address",
          "name": "spender",
          "type": "address"
        }
      ],
      "name": "Lockdown",
      "type": "event"
    },
    {
      "anonymous": false,
      "inputs": [
        {
          "indexed": true,
          "internalType": "address",
          "name": "owner",
          "type": "address"
        },
        {
          "indexed": true,
          "internalType": "address",
          "name": "token",
          "type": "address"
        },
        {
          "indexed": true,
          "internalType": "address",
          "name": "spender",
          "type": "address"
        },
        {
          "indexed": false,
          "internalType": "uint48",
          "name": "newNonce",
          "type": "uint48"
        },
        {
          "indexed": false,
          "internalType": "uint48",
          "name": "oldNonce",
          "type": "uint48"
        }
      ],
      "name": "NonceInvalidation",
      "type": "event"
    },
    {
      "anonymous": false,
      "inputs": [
        {
          "indexed": true,
          "internalType": "address",
          "name": "owner",
          "type": "address"
        },
        {
          "indexed": true,
          "internalType": "address",
          "name": "token",
          "type": "address"
        },
        {
          "indexed": true,
          "internalType": "address",
          "name": "spender",
          "type": "address"
        },
        {
          "indexed": false,
          "internalType": "uint160",
          "name": "amount",
          "type": "uint160"
        },
        {
          "indexed": false,
          "internalType": "uint48",
          "name": "expiration",
          "type": "uint48"
        },
        {
          "indexed": false,
          "internalType": "uint48",
          "name": "nonce",
          "type": "uint48"
        }
      ],
      "name": "Permit",
      "type": "event"
    },
    {
      "inputs": [],
      "name": "DOMAIN_SEPARATOR",
      "outputs": [
        {
          "internalType": "bytes32",
          "name": "",
          "type": "bytes32"
        }
      ],
      "stateMutability": "view",
      "type": "function"
    },
    {
      "inputs": [
        {
          "internalType": "address",
          "name": "",
          "type": "address"
        },
        {
          "internalType": "address",
          "name": "",
          "type": "address"
        },
        {
          "internalType": "address",
          "name": "",
          "type": "address"
        }
      ],
      "name": "allowance",
      "outputs": [
        {
          "internalType": "uint160",
          "name": "amount",
          "type": "uint160"
        },
        {
          "internalType": "uint48",
          "name": "expiration",
          "type": "uint48"
        },
        {
          "internalType": "uint48",
          "name": "nonce",
          "type": "uint48"
        }
      ],
      "stateMutability": "view",
      "type": "function"
    },
    {
      "inputs": [
        {
          "internalType": "address",
          "name": "token",
          "type": "address"
        },
        {
          "internalType": "address",
          "name": "spender",
          "type": "address"
        },
        {
          "internalType": "uint160",
          "name": "amount",
          "type": "uint160"
        },
        {
          "internalType": "uint48",
          "name": "expiration",
          "type": "uint48"
        }
      ],
      "name": "approve",
      "outputs": [],
      "stateMutability": "nonpayable",
      "type": "function"
    },
    {
      "inputs": [
        {
          "internalType": "address",
          "name": "token",
          "type": "address"
        },
        {
          "internalType": "address",
          "name": "spender",
          "type": "address"
        },
        {
          "internalType": "uint48",
          "name": "newNonce",
          "type": "uint48"
        }
      ],
      "name": "invalidateNonces",
      "outputs": [],
      "stateMutability": "nonpayable",
      "type": "function"
    },
    {
      "inputs": [
        {
          "components": [
            {
              "internalType": "address",
              "name": "token",
              "type": "address"
            },
            {
              "internalType": "address",
              "name": "spender",
              "type": "address"
            }
          ],
          "internalType": "struct IAllowanceTransfer.TokenSpenderPair[]",
          "name": "approvals",
          "type": "tuple[]"
        }
      ],
      "name": "lockdown",
      "outputs": [],
      "stateMutability": "nonpayable",
      "type": "function"
    },
    {
      "inputs": [
        {
          "internalType": "address",
          "name": "owner",
          "type": "address"
        },
        {
          "components": [
            {
              "components": [
                {
                  "internalType": "address",
                  "name": "token",
                  "type": "address"
                },
                {
                  "internalType": "uint160",
                  "name": "amount",
                  "type": "uint160"
                },
                {
                  "internalType": "uint48",
                  "name": "expiration",
                  "type": "uint48"
                },
                {
                  "internalType": "uint48",
                  "name": "nonce",
                  "type": "uint48"
                }
              ],
              "internalType": "struct IAllowanceTransfer.PermitDetails[]",
              "name": "details",
              "type": "tuple[]"
            },
            {
              "internalType": "address",
              "name": "spender",
              "type": "address"
            },
            {
              "internalType": "uint256",
              "name": "sigDeadline",
              "type": "uint256"
            }
          ],
          "internalType": "struct IAllowanceTransfer.PermitBatch",
          "name": "permitBatch",
          "type": "tuple"
        },
        {
          "internalType": "bytes",
          "name": "signature",
          "type": "bytes"
        }
      ],
      "name": "permit",
      "outputs": [],
      "stateMutability": "nonpayable",
      "type": "function"
    },
    {
      "inputs": [
        {
          "internalType": "address",
          "name": "owner",
          "type": "address"
        },
        {
          "components": [
            {
              "components": [
                {
                  "internalType": "address",
                  "name": "token",
                  "type": "address"
                },
                {
                  "internalType": "uint160",
                  "name": "amount",
                  "type": "uint160"
                },
                {
                  "internalType": "uint48",
                  "name": "expiration",
                  "type": "uint48"
                },
                {
                  "internalType": "uint48",
                  "name": "nonce",
                  "type": "uint48"
                }
              ],
              "internalType": "struct IAllowanceTransfer.PermitDetails",
              "name": "details",
              "type": "tuple"
            },
            {
              "internalType": "address",
              "name": "spender",
              "type": "address"
            },
            {
              "internalType": "uint256",
              "name": "sigDeadline",
              "type": "uint256"
            }
          ],
          "internalType": "struct IAllowanceTransfer.PermitSingle",
          "name": "permitSingle",
          "type": "tuple"
        },
        {
          "internalType": "bytes",
          "name": "signature",
          "type": "bytes"
        }
      ],
      "name": "permit",
      "outputs": [],
      "stateMutability": "nonpayable",
      "type": "function"
    },
    {
      "inputs": [
        {
          "components": [
            {
              "internalType": "address",
              "name": "from",
              "type": "address"
            },
            {
              "internalType": "address",
              "name": "to",
              "type": "address"
            },
            {
              "internalType": "uint160",
              "name": "amount",
              "type": "uint160"
            },
            {
              "internalType": "address",
              "name": "token",
              "type": "address"
            }
          ],
          "internalType": "struct IAllowanceTransfer.AllowanceTransferDetails[]",
          "name": "transferDetails",
          "type": "tuple[]"
        }
      ],
      "name": "transferFrom",
      "outputs": [],
      "stateMutability": "nonpayable",
      "type": "function"
    },
    {
      "inputs": [
        {
          "internalType": "address",
          "name": "from",
          "type": "address"
        },
        {
          "internalType": "address",
          "name": "to",
          "type": "address"
        },
        {
          "internalType": "uint160",
          "name": "amount",
          "type": "uint160"
        },
        {
          "internalType": "address",
          "name": "token",
          "type": "address"
        }
      ],
      "name": "transferFrom",
      "outputs": [],
      "stateMutability": "nonpayable",
      "type": "function"
    }
  ],
  "bytecode": "0x60c03460b7574660a052602081017f8cad95687ba82c2ce50e74f7b754645e5117c3a5bec8151c0726d5857980a86681527f9ac997416e8ff9d2ff6bebeb7149f65cdae5e32e2b90440b566bb3044041d36a60408301524660608301523060808301526080825260a082019180831060018060401b0384111760a357826040525190206080526110ed90816100bc823960805181610b1a015260a05181610af40152f35b634e487b7160e01b5f52604160045260245ffd5b5f80fdfe60806040526004361015610011575f80fd5b5f3560e01c80630d58b1db146108cb5780632a2d80d1146106175780632b67b570146104825780633644e5151461046057806336c785161461041857806365d9723c146102ef57806387517c4514610201578063927da105146101815763cc53287f1461007c575f80fd5b3461017d57602036600319011261017d576004356001600160401b03811161017d573660238201121561017d578060040135906001600160401b03821161017d576024810190602436918460061b01011161017d575f5b8281106100dc57005b806100f26100ed6001938686610bae565b610bbe565b6101086020610102848888610bae565b01610bbe565b335f8181526020818152604080832060a089901b899003968716808552908352818420959096168084529482529182902080546001600160a01b03191690558151948552840192909252917f89b1add15eff56b3dfe299ad94e01f2b52fbcb80ae1a3baea6ae8c04cb2b98a49190a2016100d3565b5f80fd5b3461017d57606036600319011261017d5761019a6109b1565b6101a26109c7565b6101aa6109dd565b6001600160a01b039283165f9081526020818152604080832094861683529381528382209285168252918252829020548251938116845265ffffffffffff60a082901c169184019190915260d01c90820152606090f35b3461017d57608036600319011261017d5761021a6109b1565b6102226109c7565b61022a6109dd565b9060643565ffffffffffff81169081810361017d57335f908152602081815260408083206001600160a01b0389811685529083528184209087168452909152902090826102ea575065ffffffffffff42165b81546001600160d01b03191660a09190911b65ffffffffffff60a01b16176001600160a01b03948516908117909155604080519182526020820192909252918316939092169133917fda9fa7c1b00402c17d0161b249b1ab8bbec047c5a52207b9c112deffd817036b9190a4005b61027c565b3461017d57606036600319011261017d576103086109b1565b6103106109c7565b6044359065ffffffffffff82169182810361017d57335f908152602081815260408083206001600160a01b038881168552908352818420908616845290915290205460d01c90818411156104095761ffff65ffffffffffff83830316116103fa57335f818152602081815260408083206001600160a01b03998a16808552908352818420979099168084529682529182902080546001600160d01b031660d09590951b6001600160d01b0319169490941790935580519586529185019290925291939290917f55eb90d810e1700b35a8e7e25395ff7f2b2259abd7415ca2284dfb1c246418f391a4005b631269ad1360e11b5f5260045ffd5b633ab3447f60e11b5f5260045ffd5b3461017d57608036600319011261017d576104316109b1565b6104396109c7565b6104416109dd565b606435916001600160a01b038316830361017d5761045e93610bd2565b005b3461017d575f36600319011261017d57602061047a610af1565b604051908152f35b3461017d5761010036600319011261017d5761049c6109b1565b36602319019060c0821261017d576080604051926104b984610a36565b1261017d576040516104ca81610a07565b6024356001600160a01b038116810361017d5781526044356001600160a01b038116810361017d57602082015260643565ffffffffffff8116810361017d57604082015260843565ffffffffffff8116810361017d576060820152825260a435906001600160a01b038216820361017d576020830191825260c435926040810184815260e4356001600160401b03811161017d5761056c903690600401610a9c565b919095804211610605575061045e956105f3926105ed869361058e8751611040565b9060018060a01b038a511690516040519160208301937ff3841cd1ff0085026a6327b620b67997ce40f282c88a8e905a7a5626e310f3d08552604084015260608301526080820152608081526105e560a082610a51565b519020610d2b565b91610d74565b5191516001600160a01b031691610f41565b63cd21db4f60e01b5f5260045260245ffd5b3461017d57606036600319011261017d576106306109b1565b602435906001600160401b03821161017d576060600319833603011261017d576040519161065d83610a36565b80600401356001600160401b03811161017d5781013660238201121561017d57600481013561068b81610a72565b916106996040519384610a51565b818352602060048185019360071b830101019036821161017d57602401915b81831061086957505050835260446106d2602483016109f3565b91602085019283520135604084018181526044356001600160401b03811161017d57610702903690600401610a9c565b919092804211610605575091908551519261071c84610a72565b9361072a6040519586610a51565b80855261073681610a72565b602086019190601f19013683375f5b8181106108375750509086979693929160405190602082018097519091905f5b81811061081e57505050958161078b6105ed94936107e59903601f198101835282610a51565b5190209060018060a01b0388511690516040519160208301937faf1b0d30d2cab0380e68f0689007e3254993c596f2fdd0aaa7f4d04f794408638552604084015260608301526080820152608081526105e560a082610a51565b5181515191906001600160a01b03165f5b8381106107ff57005b8061081883876108126001958851610ac9565b51610f41565b016107f6565b825184528c985060209384019390920191600101610765565b8061085361084d6001938d9a9798999a51610ac9565b51611040565b61085d8287610ac9565b52019594939295610745565b60808336031261017d57602060809160405161088481610a07565b61088d866109f3565b815261089a8387016109f3565b838201526108aa60408701610a89565b60408201526108bb60608701610a89565b60608201528152019201916106b8565b3461017d57602036600319011261017d576004356001600160401b03811161017d573660238201121561017d578060040135906001600160401b03821161017d573660248360071b8301011161017d575f5b8281101561045e578060071b8201906080602319833603011261017d576109ab60019260405161094c81610a07565b610958602483016109f3565b8082526060610969604485016109f3565b9283602082015261098e6084610981606488016109f3565b96876040850152016109f3565b910181905260a087901b8790039081169381169281169116610bd2565b0161091d565b600435906001600160a01b038216820361017d57565b602435906001600160a01b038216820361017d57565b604435906001600160a01b038216820361017d57565b35906001600160a01b038216820361017d57565b608081019081106001600160401b03821117610a2257604052565b634e487b7160e01b5f52604160045260245ffd5b606081019081106001600160401b03821117610a2257604052565b90601f801991011681019081106001600160401b03821117610a2257604052565b6001600160401b038111610a225760051b60200190565b359065ffffffffffff8216820361017d57565b9181601f8401121561017d578235916001600160401b03831161017d576020838186019501011161017d57565b8051821015610add5760209160051b010190565b634e487b7160e01b5f52603260045260245ffd5b467f000000000000000000000000000000000000000000000000000000000000000003610b3c577f000000000000000000000000000000000000000000000000000000000000000090565b60405160208101907f8cad95687ba82c2ce50e74f7b754645e5117c3a5bec8151c0726d5857980a86682527f9ac997416e8ff9d2ff6bebeb7149f65cdae5e32e2b90440b566bb3044041d36a604082015246606082015230608082015260808152610ba860a082610a51565b51902090565b9190811015610add5760061b0190565b356001600160a01b038116810361017d5790565b6001600160a01b039081165f8181526020818152604080832094881683529381528382203383529052919091208054909594919391929060a081901c65ffffffffffff16428110610d1957506001600160a01b0316956002600160a01b03198701610cc9575b506040516323b872dd60e01b815260048101949094526001600160a01b03908116602485015290811660448401529293506020925f9260649290918491165af13d15601f3d1160015f511416171615610c8d57565b60405162461bcd60e51b81526020600482015260146024820152731514905394d1915497d19493d357d1905253115160621b6044820152606490fd5b6001600160a01b038316871015610ced578663f96fb07160e01b5f5260045260245ffd5b80546001600160a01b031916968390036001600160a01b03169690961790955592938493906064610c38565b636c0d979760e11b5f5260045260245ffd5b610d33610af1565b9060405190602082019261190160f01b84526022830152604282015260428152610ba8606282610a51565b919082604091031261017d576020823592013590565b833b610e775760418203610e1757610d8e82820182610d5e565b93909260401015610add576020935f9360ff6040608095013560f81c5b60405194855216868401526040830152606082015282805260015afa15610e0c575f516001600160a01b0316908115610dfd576001600160a01b031603610dee57565b632057875960e21b5f5260045ffd5b638baa579f60e01b5f5260045ffd5b6040513d5f823e3d90fd5b60408203610e6857610e2b91810190610d5e565b6001600160ff1b0381169260ff91821c601b01918211610e54576020935f9360ff608094610dab565b634e487b7160e01b5f52601160045260245ffd5b634be6321b60e01b5f5260045ffd5b928193606460209460405196879586948593630b135d3f60e11b8552600485015260406024850152816044850152848401375f828201840152601f01601f191681010301916001600160a01b03165afa908115610e0c575f91610efe575b506001600160e01b0319166374eca2c160e11b01610eef57565b632c19a72f60e21b5f5260045ffd5b90506020813d602011610f39575b81610f1960209383610a51565b8101031261017d57516001600160e01b03198116810361017d575f610ed5565b3d9150610f0c565b606081015181516020808401516040948501516001600160a01b039687165f8181528085528781209589168082529585528781208a8a1682529094529590922080549690911696929565ffffffffffff94851694909216929160d01c849003610409577fc6a377bfc4eb120024a8ac08eef205be16b817020812c73223e81d1bdb9708ec936110349184611039578865ffffffffffff42165b65ffffffffffff60a01b60a09190911b166001600160d01b03196001850160d01b1617179055604080516001600160a01b03998a16815265ffffffffffff9586166020820152949091169084015295169481906060820190565b0390a4565b8885610fda565b60405165ffffffffffff606060208301937f65626cad6cb96493bf6f5ebea28756c966f023ab9e8a83a7101849d5573b3678855260018060a01b03815116604085015260018060a01b036020820151168285015282604082015116608085015201511660a082015260a08152610ba860c082610a5156fea26469706673582212207a79c8719580b6c154c307652420ea092cca912805d80879c86eb27c4c8f85db64736f6c634300081a0033",
  "linkReferences": {},
  "deployedLinkReferences": {}
}