{
  "_format": "hh-sol-artifact-1",
  "contractName": "IsFomo",
  "sourceName": "contracts/IsFomo.sol",
  "abi": [
    {
      "inputs": [
        {
          "internalType": "address",
          "name": "_posm",
          "type": "address"
        },
        {
          "internalType": "address",
          "name": "_poolm",
          "type": "address"
        },
        {
          "internalType": "address",
          "name": "_allowanceTransfer",
          "type": "address"
        }
      ],
      "stateMutability": "nonpayable",
      "type": "constructor"
    },
    {
      "inputs": [
        {
          "internalType": "address",
          "name": "owner",
          "type": "address"
        }
      ],
      "name": "OwnableInvalidOwner",
      "type": "error"
    },
    {
      "inputs": [
        {
          "internalType": "address",
          "name": "account",
          "type": "address"
        }
      ],
      "name": "OwnableUnauthorizedAccount",
      "type": "error"
    },
    {
      "anonymous": false,
      "inputs": [
        {
          "indexed": true,
          "internalType": "bytes32",
          "name": "id",
          "type": "bytes32"
        }
      ],
      "name": "ChainlinkCancelled",
      "type": "event"
    },
    {
      "anonymous": false,
      "inputs": [
        {
          "indexed": true,
          "internalType": "bytes32",
          "name": "id",
          "type": "bytes32"
        }
      ],
      "name": "ChainlinkFulfilled",
      "type": "event"
    },
    {
      "anonymous": false,
      "inputs": [
        {
          "indexed": true,
          "internalType": "bytes32",
          "name": "id",
          "type": "bytes32"
        }
      ],
      "name": "ChainlinkRequested",
      "type": "event"
    },
    {
      "anonymous": false,
      "inputs": [
        {
          "indexed": false,
          "internalType": "uint256",
          "name": "score",
          "type": "uint256"
        }
      ],
      "name": "EmotionScoreUpdated",
      "type": "event"
    },
    {
      "anonymous": false,
      "inputs": [
        {
          "indexed": true,
          "internalType": "address",
          "name": "previousOwner",
          "type": "address"
        },
        {
          "indexed": true,
          "internalType": "address",
          "name": "newOwner",
          "type": "address"
        }
      ],
      "name": "OwnershipTransferred",
      "type": "event"
    },
    {
      "anonymous": false,
      "inputs": [
        {
          "indexed": false,
          "internalType": "address",
          "name": "user",
          "type": "address"
        },
        {
          "indexed": false,
          "internalType": "string",
          "name": "action",
          "type": "string"
        },
        {
          "indexed": false,
          "internalType": "uint256",
          "name": "score",
          "type": "uint256"
        }
      ],
      "name": "PoolManagedByUser",
      "type": "event"
    },
    {
      "inputs": [
        {
          "internalType": "uint256",
          "name": "amount0",
          "type": "uint256"
        },
        {
          "internalType": "uint256",
          "name": "amount1",
          "type": "uint256"
        }
      ],
      "name": "addLiquidity",
      "outputs": [],
      "stateMutability": "nonpayable",
      "type": "function"
    },
    {
      "inputs": [],
      "name": "allowanceTransfer",
      "outputs": [
        {
          "internalType": "contract IAllowanceTransfer",
          "name": "",
          "type": "address"
        }
      ],
      "stateMutability": "view",
      "type": "function"
    },
    {
      "inputs": [],
      "name": "currency0",
      "outputs": [
        {
          "internalType": "address",
          "name": "",
          "type": "address"
        }
      ],
      "stateMutability": "view",
      "type": "function"
    },
    {
      "inputs": [],
      "name": "currency1",
      "outputs": [
        {
          "internalType": "address",
          "name": "",
          "type": "address"
        }
      ],
      "stateMutability": "view",
      "type": "function"
    },
    {
      "inputs": [],
      "name": "currentTokenId",
      "outputs": [
        {
          "internalType": "uint256",
          "name": "",
          "type": "uint256"
        }
      ],
      "stateMutability": "view",
      "type": "function"
    },
    {
      "inputs": [],
      "name": "emotionScore",
      "outputs": [
        {
          "internalType": "uint256",
          "name": "",
          "type": "uint256"
        }
      ],
      "stateMutability": "view",
      "type": "function"
    },
    {
      "inputs": [
        {
          "internalType": "bytes32",
          "name": "_requestId",
          "type": "bytes32"
        },
        {
          "internalType": "uint256",
          "name": "_score",
          "type": "uint256"
        }
      ],
      "name": "fulfill",
      "outputs": [],
      "stateMutability": "nonpayable",
      "type": "function"
    },
    {
      "inputs": [],
      "name": "lowerTokenId",
      "outputs": [
        {
          "internalType": "uint256",
          "name": "",
          "type": "uint256"
        }
      ],
      "stateMutability": "view",
      "type": "function"
    },
    {
      "inputs": [
        {
          "internalType": "address",
          "name": "",
          "type": "address"
        }
      ],
      "name": "lpByUser",
      "outputs": [
        {
          "internalType": "uint256",
          "name": "",
          "type": "uint256"
        }
      ],
      "stateMutability": "view",
      "type": "function"
    },
    {
      "inputs": [
        {
          "components": [
            {
              "internalType": "Currency",
              "name": "currency0",
              "type": "address"
            },
            {
              "internalType": "Currency",
              "name": "currency1",
              "type": "address"
            },
            {
              "internalType": "uint24",
              "name": "fee",
              "type": "uint24"
            },
            {
              "internalType": "int24",
              "name": "tickSpacing",
              "type": "int24"
            },
            {
              "internalType": "contract IHooks",
              "name": "hooks",
              "type": "address"
            }
          ],
          "internalType": "struct PoolKey",
          "name": "_poolKey",
          "type": "tuple"
        },
        {
          "internalType": "int256",
          "name": "_tickLower",
          "type": "int256"
        },
        {
          "internalType": "int256",
          "name": "_tickUpper",
          "type": "int256"
        },
        {
          "internalType": "uint256",
          "name": "amount0",
          "type": "uint256"
        },
        {
          "internalType": "uint256",
          "name": "amount1",
          "type": "uint256"
        }
      ],
      "name": "mintPosition",
      "outputs": [],
      "stateMutability": "nonpayable",
      "type": "function"
    },
    {
      "inputs": [],
      "name": "owner",
      "outputs": [
        {
          "internalType": "address",
          "name": "",
          "type": "address"
        }
      ],
      "stateMutability": "view",
      "type": "function"
    },
    {
      "inputs": [],
      "name": "poolm",
      "outputs": [
        {
          "internalType": "contract IPoolManager",
          "name": "",
          "type": "address"
        }
      ],
      "stateMutability": "view",
      "type": "function"
    },
    {
      "inputs": [],
      "name": "posm",
      "outputs": [
        {
          "internalType": "contract IPositionManager",
          "name": "",
          "type": "address"
        }
      ],
      "stateMutability": "view",
      "type": "function"
    },
    {
      "inputs": [
        {
          "internalType": "uint256",
          "name": "liquidity",
          "type": "uint256"
        }
      ],
      "name": "removeLiquidity",
      "outputs": [],
      "stateMutability": "nonpayable",
      "type": "function"
    },
    {
      "inputs": [],
      "name": "renounceOwnership",
      "outputs": [],
      "stateMutability": "nonpayable",
      "type": "function"
    },
    {
      "inputs": [],
      "name": "requestEmotionScore",
      "outputs": [],
      "stateMutability": "nonpayable",
      "type": "function"
    },
    {
      "inputs": [
        {
          "internalType": "address",
          "name": "_token",
          "type": "address"
        },
        {
          "internalType": "address",
          "name": "_oracle",
          "type": "address"
        },
        {
          "internalType": "bytes32",
          "name": "_jobId",
          "type": "bytes32"
        }
      ],
      "name": "setOracle",
      "outputs": [],
      "stateMutability": "nonpayable",
      "type": "function"
    },
    {
      "inputs": [
        {
          "internalType": "string",
          "name": "_url",
          "type": "string"
        }
      ],
      "name": "setUrl",
      "outputs": [],
      "stateMutability": "nonpayable",
      "type": "function"
    },
    {
      "inputs": [],
      "name": "totalLiquidity",
      "outputs": [
        {
          "internalType": "uint256",
          "name": "",
          "type": "uint256"
        }
      ],
      "stateMutability": "view",
      "type": "function"
    },
    {
      "inputs": [
        {
          "internalType": "address",
          "name": "newOwner",
          "type": "address"
        }
      ],
      "name": "transferOwnership",
      "outputs": [],
      "stateMutability": "nonpayable",
      "type": "function"
    },
    {
      "inputs": [],
      "name": "upperTokenId",
      "outputs": [
        {
          "internalType": "uint256",
          "name": "",
          "type": "uint256"
        }
      ],
      "stateMutability": "view",
      "type": "function"
    },
    {
      "inputs": [],
      "name": "url",
      "outputs": [
        {
          "internalType": "string",
          "name": "",
          "type": "string"
        }
      ],
      "stateMutability": "view",
      "type": "function"
    },
    {
      "inputs": [],
      "name": "withdrawLink",
      "outputs": [],
      "stateMutability": "nonpayable",
      "type": "function"
    }
  ],
  "bytecode": "0x60803461011957601f61267138819003918201601f19168301916001600160401b0383118484101761011d578084926060946040528339810103126101195761004781610131565b61005f604061005860208501610131565b9301610131565b90600160045533156101065760068054336001600160a01b0319821681179092556040519491906001600160a01b03167f8be0079c531659141344cd1fd0a4f28419497f9722a3daafe3b4186f6b6457e05f80a36402540be400600755600b80546001600160a01b03199081166001600160a01b0393841617909155600a8054821693831693909317909255600c8054909216921691909117905561252b90816101468239f35b631e4fbdf760e01b5f525f60045260245ffd5b5f80fd5b634e487b7160e01b5f52604160045260245ffd5b51906001600160a01b03821682036101195756fe60806040526004361015610011575f80fd5b5f3560e01c80629a9b7b146101835780630e147cf61461017e57806310d737b81461017957806315770f9214610174578063252498a21461016f5780633ebb047f1461016a5780634357855e146101655780634732f407146101605780635600f04f1461015b5780636f70a7fa14610156578063715018a61461015157806372be4ad71461014c57806379f1232b146101475780638da5cb5b146101425780638dc654a21461013d5780639c8f9f23146101385780639cd441da14610133578063a191ca5e1461012e578063bc8aac5714610129578063c46a8e4e14610124578063df4638181461011f578063e4a6e90a1461011a5763f2fde38b14610115575f80fd5b610dcd565b610db0565b610d93565b610d02565b610ccd565b610c64565b610a68565b610831565b610726565b6106fe565b6106d6565b61069b565b61062f565b610607565b6105d4565b6104a4565b6103c8565b6103a0565b61032e565b61029e565b610276565b6101b3565b610196565b5f91031261019257565b5f80fd5b34610192575f366003190112610192576020601054604051908152f35b34610192575f366003190112610192576101cb6118cd565b6102746009546101d961191e565b506101e261191e565b906101eb61191e565b506101f96080830151611fb0565b5081523060208201526321abc2af60e11b604082015261023f6040516102206040826102f0565b600381526219d95d60ea1b60208201526102386104f9565b9083611950565b61025261024a610e57565b610238610e79565b60035461026f906001600160a01b03165b6001600160a01b031690565b611f18565b005b34610192575f36600319011261019257600e546040516001600160a01b039091168152602090f35b34610192575f366003190112610192576020600f54604051908152f35b634e487b7160e01b5f52604160045260245ffd5b60a0810190811067ffffffffffffffff8211176102eb57604052565b6102bb565b90601f8019910116810190811067ffffffffffffffff8211176102eb57604052565b67ffffffffffffffff81116102eb57601f01601f191660200190565b346101925760203660031901126101925760043567ffffffffffffffff8111610192573660238201121561019257806004013561036a81610312565b9061037860405192836102f0565b8082523660248285010111610192576020815f92602461027496018386013783010152610e9b565b34610192575f36600319011261019257600c546040516001600160a01b039091168152602090f35b34610192576040366003190112610192576004356024355f828152600560205260409020546001600160a01b0316330361044e5781610425610415610274945f52600560205260405f2090565b80546001600160a01b0319169055565b7f7cc135e0cebb02c3480ae5d74d377283180a2601f8f644edf7987b009316c63a5f80a2611175565b60405162461bcd60e51b815260206004820152602860248201527f536f75726365206d75737420626520746865206f7261636c65206f6620746865604482015267081c995c5d595cdd60c21b6064820152608490fd5b34610192575f366003190112610192576020601254604051908152f35b90600182811c921680156104ef575b60208310146104db57565b634e487b7160e01b5f52602260045260245ffd5b91607f16916104d0565b604051905f826013549161050c836104c1565b80835292600181169081156105915750600114610532575b610530925003836102f0565b565b5060135f90815290917f66de8ffda797e3de9c05e8fc57b3bf0ec28a930d40b0d285d93c06501cf6a0905b81831061057557505090602061053092820101610524565b602091935080600191548385890101520191019091849261055d565b6020925061053094915060ff191682840152151560051b820101610524565b805180835260209291819084018484015e5f828201840152601f01601f1916010190565b34610192575f366003190112610192576106036105ef6104f9565b6040519182916020835260208301906105b0565b0390f35b34610192575f36600319011261019257600a546040516001600160a01b039091168152602090f35b34610192575f366003190112610192576106476118cd565b600680546001600160a01b031981169091555f906001600160a01b03167f8be0079c531659141344cd1fd0a4f28419497f9722a3daafe3b4186f6b6457e08280a3005b6001600160a01b0381160361019257565b34610192576020366003190112610192576004356106b88161068a565b60018060a01b03165f526014602052602060405f2054604051908152f35b34610192575f36600319011261019257600d546040516001600160a01b039091168152602090f35b34610192575f366003190112610192576006546040516001600160a01b039091168152602090f35b34610192575f3660031901126101925761073e6118cd565b600254610757906102639081906001600160a01b031681565b6040516370a0823160e01b8152306004820152602081602481855afa9081156107ff575f926020926107b5928591610804575b5060405163a9059cbb60e01b8152336004820152602481019190915293849283919082906044820190565b03925af180156107ff57610274915f916107d0575b506113e6565b6107f2915060203d6020116107f8575b6107ea81836102f0565b8101906113ce565b5f6107ca565b503d6107e0565b61116a565b6108249150843d861161082a575b61081c81836102f0565b8101906113bf565b5f61078a565b503d610812565b3461019257602036600319011261019257600435335f908152601460205260409020610861908290541015611427565b604051600160f81b6020820152601560f81b60218201529061089082602281015b03601f1981018452836102f0565b610898611017565b90806108e46010546108d660405193849260208401909160c092825260208201525f60408201525f606082015260a060808201525f60a08201520190565b03601f1981018352826102f0565b6108ed8361108b565b526108f78261108b565b50600d54600e54604080516001600160a01b039384166020820152929091169082015233606082015261092d81608081016108d6565b610936836110ac565b52610940826110ac565b5061095561095082600f5461148f565b600f55565b335f90815260146020526040902061096f9091825461148f565b905561097a42610fe9565b600a546109a690610993906001600160a01b0316610263565b93610882604051948592602084016110dc565b823b15610192576109d0925f928360405180968195829463dd46508f60e01b84526004840161114e565b03925af180156107ff57610a4e575b6109e7611969565b600854604080513381526060602082018190526011908201527052656d6f766564204c697175696469747960781b6080820152908101919091527fb1f7b32a5c94f1bfa78c4ecd625c13a23157f0e9712601249659dc70a5202cad908060a081015b0390a1005b80610a5c5f610a62936102f0565b80610188565b5f6109df565b34610192576040366003190112610192576040515f6020820152601160f81b602182015260028152600435602435610aa16022846102f0565b610b92610aac611017565b9280610aec6010546108d686846040519586946020860192909160c09492845260208401526040830152606082015260a060808201525f60a08201520190565b610af58561108b565b52610aff8461108b565b50600d546001600160a01b0316600e54610b43906001600160a01b03165b604080516001600160a01b039485166020820152939091169083015281606081016108d6565b610b4c856110ac565b52610b56846110ac565b50610b6661095082600f5461100a565b335f908152601460205260409020610b7f82825461100a565b9055610b8a42610fe9565b928391611aaa565b600a54610bab90610993906001600160a01b0316610263565b823b1561019257610bd5925f928360405180968195829463dd46508f60e01b84526004840161114e565b03925af180156107ff57610c50575b610bec611969565b60085460408051338152606060208201819052600f908201526e4164646564204c697175696469747960881b6080820152908101919091527fb1f7b32a5c94f1bfa78c4ecd625c13a23157f0e9712601249659dc70a5202cad908060a08101610a49565b80610a5c5f610c5e936102f0565b5f610be4565b3461019257606036600319011261019257600435610c818161068a565b602435610c8d8161068a565b60443591610c996118cd565b600280546001600160a01b039283166001600160a01b03199182161790915560038054939092169216919091179055600955005b34610192575f36600319011261019257600b546040516001600160a01b039091168152602090f35b608435906105308261068a565b3461019257366003190161012081126101925760a01361019257604051610d28816102cf565b600435610d348161068a565b8152602435610d428161068a565b602082015260443562ffffff81168103610192576040820152606435908160020b820361019257610274916060820152610d7a610cf5565b608082015260a43560c43560e43591610104359361149c565b34610192575f366003190112610192576020600854604051908152f35b34610192575f366003190112610192576020601154604051908152f35b3461019257602036600319011261019257600435610dea8161068a565b610df26118cd565b6001600160a01b03168015610e4457600680546001600160a01b0319811683179091556001600160a01b03167f8be0079c531659141344cd1fd0a4f28419497f9722a3daafe3b4186f6b6457e05f80a3005b631e4fbdf760e01b5f525f60045260245ffd5b60405190610e666040836102f0565b60048252630e0c2e8d60e31b6020830152565b60405190610e886040836102f0565b60048252636461746160e01b6020830152565b90610ea46118cd565b815167ffffffffffffffff81116102eb57610ec981610ec46013546104c1565b610f85565b602092601f8211600114610f0957610ef9929382915f92610efe575b50508160011b915f199060031b1c19161790565b601355565b015190505f80610ee5565b60135f52601f198216937f66de8ffda797e3de9c05e8fc57b3bf0ec28a930d40b0d285d93c06501cf6a090915f5b868110610f6d5750836001959610610f55575b505050811b01601355565b01515f1960f88460031b161c191690555f8080610f4a565b91926020600181928685015181550194019201610f37565b601f8111610f91575050565b60135f5260205f20906020601f840160051c83019310610fcb575b601f0160051c01905b818110610fc0575050565b5f8155600101610fb5565b9091508190610fac565b634e487b7160e01b5f52601160045260245ffd5b90603c8201809211610ff757565b610fd5565b9060208201809211610ff757565b91908201809211610ff757565b6040516060919061102883826102f0565b6002815291601f1901825f5b82811061104057505050565b806060602080938501015201611034565b60405160a0919061106283826102f0565b6004815291601f1901825f5b82811061107a57505050565b80606060208093850101520161106e565b8051156110985760200190565b634e487b7160e01b5f52603260045260245ffd5b8051600110156110985760400190565b8051600210156110985760600190565b8051600310156110985760800190565b906110ef906040835260408301906105b0565b906020818303910152815180825260208201916020808360051b8301019401925f915b83831061112157505050505090565b909192939460208061113f600193601f1986820301875289516105b0565b97019301930191939290611112565b9291906111656020916040865260408601906105b0565b930152565b6040513d5f823e3d90fd5b6008556010546008546005106113ad576010546011548091146113a9576010555b604051600160f81b6020820152601560f81b60218201525f6022820152601160f81b6023820152906111cb8260248101610882565b6111d442610fe9565b61121c6111df611051565b92600f549182916108d683604051948593602085019160c093918352602083015260408201525f606082015260a060808201525f60a08201520190565b6112258461108b565b5261122f8361108b565b50600d54600e54604080516001600160a01b03938416602082018190529290931690830181905290926112fd9261126981606081016108d6565b611272876110ac565b5261127c866110ac565b506112bd6010546108d6600754806040519586946020860192909160c09492845260208401526040830152606082015260a060808201525f60a08201520190565b6112c6866110bc565b526112d0856110bc565b50604080516001600160a01b039485166020820152939091169083015230606083015281608081016108d6565b611306836110cc565b52611310826110cc565b50600a5461132a90610993906001600160a01b0316610263565b823b1561019257611354925f928360405180968195829463dd46508f60e01b84526004840161114e565b03925af180156107ff57611395575b506008546040519081527fab7ac25c52924325494046e0f645a265417fc385d5953d52a1d3d6ed0130900690602090a1565b80610a5c5f6113a3936102f0565b5f611363565b5050565b6012548082146113a957601055611196565b90816020910312610192575190565b90816020910312610192575180151581036101925790565b156113ed57565b60405162461bcd60e51b81526020600482015260126024820152712ab730b13632903a37903a3930b739b332b960711b6044820152606490fd5b1561142e57565b606460405162461bcd60e51b815260206004820152602060248201527f57697468647261772065786365656473206c7020746f6b656e73206f776e65646044820152fd5b601f19810191908211610ff757565b5f19810191908211610ff757565b91908203918211610ff757565b93929190926114a96118cd565b84516114e3906114c1906001600160a01b0316610263565b60018060a01b03166bffffffffffffffffffffffff60a01b600d541617600d55565b6020850151611520906114fe906001600160a01b0316610263565b60018060a01b03166bffffffffffffffffffffffff60a01b600e541617600e55565b61152942610fe9565b9261153e611537848761181b565b6002900590565b604051600160f91b6020820152601160f81b602182015260028152969091906115686022896102f0565b6108d6611597611576611017565b98611582898887611aaa565b60405192839188878930938960208801611836565b6115a08861108b565b526115aa8761108b565b50600d546001600160a01b0316600e546115cc906001600160a01b0316610b1d565b6115d5886110ac565b526115df876110ac565b50600a546004906020906115fb906001600160a01b0316610263565b604051631d5e528f60e21b815292839182905afa80156107ff57611626915f916117fc575b50601155565b600a5461163b906001600160a01b0316610263565b9360405194611660866116528b8d602084016110dc565b03601f1981018852876102f0565b803b1561019257875f9161168b9783604051809a8195829463dd46508f60e01b84526004840161114e565b03925af19283156107ff576116c0956108d6946117e8575b506116af888383611aaa565b604051968795309460208801611836565b6116c98361108b565b526116d38261108b565b50600d546001600160a01b0316600e546116f5906001600160a01b0316610b1d565b6116fe836110ac565b52611708826110ac565b50600a54600490602090611724906001600160a01b0316610263565b604051631d5e528f60e21b815292839182905afa80156107ff5761174f915f916117c9575b50601255565b600a5461176890610993906001600160a01b0316610263565b823b1561019257611792925f928360405180968195829463dd46508f60e01b84526004840161114e565b03925af180156107ff576117b5575b506117ad601254601055565b610530611969565b80610a5c5f6117c3936102f0565b5f6117a1565b6117e2915060203d60201161082a5761081c81836102f0565b5f611749565b80610a5c5f6117f6936102f0565b5f6116a3565b611815915060203d60201161082a5761081c81836102f0565b5f611620565b9190915f8382019384129112908015821691151617610ff757565b81516001600160a01b03908116825260208084015182169083015260408084015162ffffff169083015260608084015160020b9083015260809283015181169282019290925260a081019290925260c0820192909252668e1bc9bf04000060e0820152610100810192909252610120820192909252911661014082015261018061016082018190525f908201526101a00190565b90565b6006546001600160a01b031633036118e157565b63118cdaa760e01b5f523360045260245ffd5b604051906040820182811067ffffffffffffffff8211176102eb576040525f602083606081520152565b6040519061192b826102cf565b815f81525f60208201525f60408201525f6060820152608061194b6118f4565b910152565b6080018051610530939261196391611e6d565b51611e6d565b600d5461198090610263906001600160a01b031681565b6040516370a0823160e01b8152306004820152602081602481855afa9081156107ff575f926020926119dd928591610804575060405163a9059cbb60e01b8152336004820152602481019190915293849283919082906044820190565b03925af180156107ff57611a8d575b50600e54611a0490610263906001600160a01b031681565b6040516370a0823160e01b8152306004820152602081602481855afa9081156107ff575f92602092611a61928591610804575060405163a9059cbb60e01b8152336004820152602481019190915293849283919082906044820190565b03925af180156107ff57611a725750565b611a8a9060203d6020116107f8576107ea81836102f0565b50565b611aa59060203d6020116107f8576107ea81836102f0565b6119ec565b600d54909290611ac490610263906001600160a01b031681565b6040516323b872dd60e01b81523360048201523060248201526044810185905290602090829060649082905f905af180156107ff57611e50575b50600e54611b1690610263906001600160a01b031681565b6040516323b872dd60e01b81523360048201523060248201526044810184905290602090829060649082905f905af180156107ff57611e33575b50611bba602084611b6e610263610263600d5460018060a01b031690565b600a54611b83906001600160a01b0316610263565b60405163095ea7b360e01b81526001600160a01b0390911660048201526024810192909252909283919082905f9082906044820190565b03925af180156107ff57611e16575b50611be7602083611b6e610263610263600e5460018060a01b031690565b03925af180156107ff57611df9575b50611c29602084611c14610263610263600d5460018060a01b031690565b600c54611b83906001600160a01b0316610263565b03925af180156107ff57611ddc575b50611c56602083611c14610263610263600e5460018060a01b031690565b03925af180156107ff57611dbf575b50600c54611c7b906001600160a01b0316610263565b600d549093906001600160a01b0316600a5465ffffffffffff90611ca7906001600160a01b0316610263565b931694803b15610192576040516387517c4560e01b81526001600160a01b03928316600482015293821660248501529116604483015265ffffffffffff841660648301525f908290608490829084905af180156107ff57611dab575b50600c54611d19906001600160a01b0316610263565b600e546001600160a01b0316600a54909190611d3d906001600160a01b0316610263565b813b15610192576040516387517c4560e01b81526001600160a01b039384166004820152908316602482015291909216604482015265ffffffffffff90921660648301525f9082908183816084810103925af180156107ff57611d9d5750565b80610a5c5f610530936102f0565b80610a5c5f611db9936102f0565b5f611d03565b611dd79060203d6020116107f8576107ea81836102f0565b611c65565b611df49060203d6020116107f8576107ea81836102f0565b611c38565b611e119060203d6020116107f8576107ea81836102f0565b611bf6565b611e2e9060203d6020116107f8576107ea81836102f0565b611bc9565b611e4b9060203d6020116107f8576107ea81836102f0565b611b50565b611e689060203d6020116107f8576107ea81836102f0565b611afe565b8151611a8a92919067ffffffffffffffff1660178111611ea457611e9e90611e989060601760ff1690565b82612278565b5061201c565b60ff8111611ec257611e9e90611ebb607884612278565b5082612446565b61ffff8111611ee157611e9e90611eda607984612278565b50826123d4565b63ffffffff8111611f0257611e9e90611efb607a84612278565b5082612360565b611e9e90611f11607b84612278565b50826122e4565b906004546001810190818111610ff7576118ca935f92600455611fab8451611f9d608063ffffffff60e01b604089015116970151516040519788936320214ca360e11b6020860152886024860152886044860152606485015230608485015260a48401528560c4840152600160e48401526101006101048401526101248301906105b0565b03601f1981018652856102f0565b612171565b611fb86118f4565b5061010060208201526101206040518083525f81520160405290565b90611fdd6118f4565b50601f811680612002575b508060208301526040518083525f81520160200160405290565b60200360208111610ff7578101809111610ff7575f611fe8565b906120256118f4565b50815151908051906120356118f4565b5061204381518311156124b7565b61204d828461100a565b60208501518091116120ca575b50602090845180519083868201019585019182116120c2575b505001905b602081101561209c575f19906020036101000a019081199051169082511617905290565b90916120b76120b16120bd9285518152610ffc565b93610ffc565b91611472565b612078565b525f80612073565b6120e96120e46120ef926120de878761100a565b906124d4565b6124be565b856124e4565b5f61205a565b6118ca939260609260018060a01b03168252602082015281604082015201906105b0565b1561212057565b60405162461bcd60e51b815260206004820152602360248201527f756e61626c6520746f207472616e73666572416e6443616c6c20746f206f7261604482015262636c6560e81b6064820152608490fd5b6040513060601b6bffffffffffffffffffffffff191660208281019182526034830194909452939461223e949092916121ad81605481016108d6565b519020946121e6826121c7885f52600560205260405f2090565b80546001600160a01b0319166001600160a01b03909216919091179055565b5f6040518096819582948a7fb5e6e01e79f91267dc17b4e6314d5d4d03593d2ceee0fbb452b750bd70ea5af98680a260025461222a906001600160a01b0316610263565b630200057560e51b855296600485016120f5565b03925af180156107ff576118ca915f91612259575b50612119565b612272915060203d6020116107f8576107ea81836102f0565b5f612253565b906122816118f4565b5081515161228d6118f4565b506020830151808210156122be575b50825191825191829160208286010153146122b657505090565b600101905290565b6122ca6122dd916124be565b6122d685519186611fd4565b508461201c565b505f61229c565b906122ed6118f4565b50815151906122fa6118f4565b508160080180600811610ff7576020840151811161234d575b5061232668010000000000000000611481565b835191600884840101911982511617905260088151920191821161234957505090565b5290565b6122ca612359916124be565b505f612313565b906123696118f4565b50815151906123766118f4565b508160040180600411610ff757602084015181116123c1575b5061239e640100000000611481565b835191600484840101911982511617905260048151920191821161234957505090565b6122ca6123cd916124be565b505f61238f565b906123dd6118f4565b50815151906123ea6118f4565b508160020180600211610ff75760208401518111612433575b5061241062010000611481565b835191600284840101911982511617905260028151920191821161234957505090565b6122ca61243f916124be565b505f612403565b9061244f6118f4565b508151519061245c6118f4565b508160010180600111610ff757602084015181116124a4575b50612481610100611481565b835191600184840101911982511617905260018151920191821161234957505090565b6122ca6124b0916124be565b505f612475565b1561019257565b908160011b9180830460021490151715610ff757565b8181116124df575090565b905090565b90611a8a91611e9e81519282611fd456fea264697066735822122042f53878f6200ee9e40649ab1391ae7011fbaa15fb4fd93fc05f3ff0d624de2964736f6c634300081a0033",
  "linkReferences": {},
  "deployedLinkReferences": {}
}