{
  "_format": "hh-sol-artifact-1",
  "contractName": "PositionManager",
  "sourceName": "contracts/v4-periphery/PositionManager.sol",
  "abi": [
    {
      "inputs": [
        {
          "internalType": "contract IPoolManager",
          "name": "_poolManager",
          "type": "address"
        },
        {
          "internalType": "contract IAllowanceTransfer",
          "name": "_permit2",
          "type": "address"
        },
        {
          "internalType": "uint256",
          "name": "_unsubscribeGasLimit",
          "type": "uint256"
        }
      ],
      "stateMutability": "nonpayable",
      "type": "constructor"
    },
    {
      "inputs": [
        {
          "internalType": "uint256",
          "name": "tokenId",
          "type": "uint256"
        },
        {
          "internalType": "address",
          "name": "subscriber",
          "type": "address"
        }
      ],
      "name": "AlreadySubscribed",
      "type": "error"
    },
    {
      "inputs": [],
      "name": "ContractLocked",
      "type": "error"
    },
    {
      "inputs": [
        {
          "internalType": "uint256",
          "name": "deadline",
          "type": "uint256"
        }
      ],
      "name": "DeadlinePassed",
      "type": "error"
    },
    {
      "inputs": [
        {
          "internalType": "Currency",
          "name": "currency",
          "type": "address"
        }
      ],
      "name": "DeltaNotNegative",
      "type": "error"
    },
    {
      "inputs": [
        {
          "internalType": "Currency",
          "name": "currency",
          "type": "address"
        }
      ],
      "name": "DeltaNotPositive",
      "type": "error"
    },
    {
      "inputs": [],
      "name": "GasLimitTooLow",
      "type": "error"
    },
    {
      "inputs": [],
      "name": "InputLengthMismatch",
      "type": "error"
    },
    {
      "inputs": [],
      "name": "InvalidContractSignature",
      "type": "error"
    },
    {
      "inputs": [],
      "name": "InvalidSignature",
      "type": "error"
    },
    {
      "inputs": [],
      "name": "InvalidSignatureLength",
      "type": "error"
    },
    {
      "inputs": [],
      "name": "InvalidSigner",
      "type": "error"
    },
    {
      "inputs": [
        {
          "internalType": "uint128",
          "name": "maximumAmount",
          "type": "uint128"
        },
        {
          "internalType": "uint128",
          "name": "amountRequested",
          "type": "uint128"
        }
      ],
      "name": "MaximumAmountExceeded",
      "type": "error"
    },
    {
      "inputs": [
        {
          "internalType": "uint128",
          "name": "minimumAmount",
          "type": "uint128"
        },
        {
          "internalType": "uint128",
          "name": "amountReceived",
          "type": "uint128"
        }
      ],
      "name": "MinimumAmountInsufficient",
      "type": "error"
    },
    {
      "inputs": [],
      "name": "NoCodeSubscriber",
      "type": "error"
    },
    {
      "inputs": [],
      "name": "NoSelfPermit",
      "type": "error"
    },
    {
      "inputs": [],
      "name": "NonceAlreadyUsed",
      "type": "error"
    },
    {
      "inputs": [
        {
          "internalType": "address",
          "name": "caller",
          "type": "address"
        }
      ],
      "name": "NotApproved",
      "type": "error"
    },
    {
      "inputs": [],
      "name": "NotPoolManager",
      "type": "error"
    },
    {
      "inputs": [],
      "name": "NotSubscribed",
      "type": "error"
    },
    {
      "inputs": [],
      "name": "SignatureDeadlineExpired",
      "type": "error"
    },
    {
      "inputs": [],
      "name": "Unauthorized",
      "type": "error"
    },
    {
      "inputs": [
        {
          "internalType": "uint256",
          "name": "action",
          "type": "uint256"
        }
      ],
      "name": "UnsupportedAction",
      "type": "error"
    },
    {
      "inputs": [
        {
          "internalType": "address",
          "name": "subscriber",
          "type": "address"
        },
        {
          "internalType": "bytes",
          "name": "reason",
          "type": "bytes"
        }
      ],
      "name": "Wrap__ModifyLiquidityNotificationReverted",
      "type": "error"
    },
    {
      "inputs": [
        {
          "internalType": "address",
          "name": "subscriber",
          "type": "address"
        },
        {
          "internalType": "bytes",
          "name": "reason",
          "type": "bytes"
        }
      ],
      "name": "Wrap__SubscriptionReverted",
      "type": "error"
    },
    {
      "inputs": [
        {
          "internalType": "address",
          "name": "subscriber",
          "type": "address"
        },
        {
          "internalType": "bytes",
          "name": "reason",
          "type": "bytes"
        }
      ],
      "name": "Wrap__TransferNotificationReverted",
      "type": "error"
    },
    {
      "anonymous": false,
      "inputs": [
        {
          "indexed": true,
          "internalType": "address",
          "name": "owner",
          "type": "address"
        },
        {
          "indexed": true,
          "internalType": "address",
          "name": "spender",
          "type": "address"
        },
        {
          "indexed": true,
          "internalType": "uint256",
          "name": "id",
          "type": "uint256"
        }
      ],
      "name": "Approval",
      "type": "event"
    },
    {
      "anonymous": false,
      "inputs": [
        {
          "indexed": true,
          "internalType": "address",
          "name": "owner",
          "type": "address"
        },
        {
          "indexed": true,
          "internalType": "address",
          "name": "operator",
          "type": "address"
        },
        {
          "indexed": false,
          "internalType": "bool",
          "name": "approved",
          "type": "bool"
        }
      ],
      "name": "ApprovalForAll",
      "type": "event"
    },
    {
      "anonymous": false,
      "inputs": [
        {
          "indexed": true,
          "internalType": "uint256",
          "name": "tokenId",
          "type": "uint256"
        },
        {
          "indexed": true,
          "internalType": "address",
          "name": "subscriber",
          "type": "address"
        }
      ],
      "name": "Subscription",
      "type": "event"
    },
    {
      "anonymous": false,
      "inputs": [
        {
          "indexed": true,
          "internalType": "address",
          "name": "from",
          "type": "address"
        },
        {
          "indexed": true,
          "internalType": "address",
          "name": "to",
          "type": "address"
        },
        {
          "indexed": true,
          "internalType": "uint256",
          "name": "id",
          "type": "uint256"
        }
      ],
      "name": "Transfer",
      "type": "event"
    },
    {
      "anonymous": false,
      "inputs": [
        {
          "indexed": true,
          "internalType": "uint256",
          "name": "tokenId",
          "type": "uint256"
        },
        {
          "indexed": true,
          "internalType": "address",
          "name": "subscriber",
          "type": "address"
        }
      ],
      "name": "Unsubscription",
      "type": "event"
    },
    {
      "inputs": [],
      "name": "DOMAIN_SEPARATOR",
      "outputs": [
        {
          "internalType": "bytes32",
          "name": "",
          "type": "bytes32"
        }
      ],
      "stateMutability": "view",
      "type": "function"
    },
    {
      "inputs": [
        {
          "internalType": "address",
          "name": "spender",
          "type": "address"
        },
        {
          "internalType": "uint256",
          "name": "id",
          "type": "uint256"
        }
      ],
      "name": "approve",
      "outputs": [],
      "stateMutability": "nonpayable",
      "type": "function"
    },
    {
      "inputs": [
        {
          "internalType": "address",
          "name": "owner",
          "type": "address"
        }
      ],
      "name": "balanceOf",
      "outputs": [
        {
          "internalType": "uint256",
          "name": "",
          "type": "uint256"
        }
      ],
      "stateMutability": "view",
      "type": "function"
    },
    {
      "inputs": [
        {
          "internalType": "uint256",
          "name": "",
          "type": "uint256"
        }
      ],
      "name": "getApproved",
      "outputs": [
        {
          "internalType": "address",
          "name": "",
          "type": "address"
        }
      ],
      "stateMutability": "view",
      "type": "function"
    },
    {
      "inputs": [
        {
          "internalType": "uint256",
          "name": "tokenId",
          "type": "uint256"
        }
      ],
      "name": "getPoolAndPositionInfo",
      "outputs": [
        {
          "components": [
            {
              "internalType": "Currency",
              "name": "currency0",
              "type": "address"
            },
            {
              "internalType": "Currency",
              "name": "currency1",
              "type": "address"
            },
            {
              "internalType": "uint24",
              "name": "fee",
              "type": "uint24"
            },
            {
              "internalType": "int24",
              "name": "tickSpacing",
              "type": "int24"
            },
            {
              "internalType": "contract IHooks",
              "name": "hooks",
              "type": "address"
            }
          ],
          "internalType": "struct PoolKey",
          "name": "poolKey",
          "type": "tuple"
        },
        {
          "internalType": "PositionInfo",
          "name": "info",
          "type": "uint256"
        }
      ],
      "stateMutability": "view",
      "type": "function"
    },
    {
      "inputs": [
        {
          "internalType": "uint256",
          "name": "tokenId",
          "type": "uint256"
        }
      ],
      "name": "getPositionLiquidity",
      "outputs": [
        {
          "internalType": "uint128",
          "name": "liquidity",
          "type": "uint128"
        }
      ],
      "stateMutability": "view",
      "type": "function"
    },
    {
      "inputs": [
        {
          "components": [
            {
              "internalType": "Currency",
              "name": "currency0",
              "type": "address"
            },
            {
              "internalType": "Currency",
              "name": "currency1",
              "type": "address"
            },
            {
              "internalType": "uint24",
              "name": "fee",
              "type": "uint24"
            },
            {
              "internalType": "int24",
              "name": "tickSpacing",
              "type": "int24"
            },
            {
              "internalType": "contract IHooks",
              "name": "hooks",
              "type": "address"
            }
          ],
          "internalType": "struct PoolKey",
          "name": "key",
          "type": "tuple"
        },
        {
          "internalType": "uint160",
          "name": "sqrtPriceX96",
          "type": "uint160"
        },
        {
          "internalType": "bytes",
          "name": "hookData",
          "type": "bytes"
        }
      ],
      "name": "initializePool",
      "outputs": [
        {
          "internalType": "int24",
          "name": "",
          "type": "int24"
        }
      ],
      "stateMutability": "payable",
      "type": "function"
    },
    {
      "inputs": [
        {
          "internalType": "address",
          "name": "",
          "type": "address"
        },
        {
          "internalType": "address",
          "name": "",
          "type": "address"
        }
      ],
      "name": "isApprovedForAll",
      "outputs": [
        {
          "internalType": "bool",
          "name": "",
          "type": "bool"
        }
      ],
      "stateMutability": "view",
      "type": "function"
    },
    {
      "inputs": [
        {
          "internalType": "bytes",
          "name": "unlockData",
          "type": "bytes"
        },
        {
          "internalType": "uint256",
          "name": "deadline",
          "type": "uint256"
        }
      ],
      "name": "modifyLiquidities",
      "outputs": [],
      "stateMutability": "payable",
      "type": "function"
    },
    {
      "inputs": [
        {
          "internalType": "bytes",
          "name": "actions",
          "type": "bytes"
        },
        {
          "internalType": "bytes[]",
          "name": "params",
          "type": "bytes[]"
        }
      ],
      "name": "modifyLiquiditiesWithoutUnlock",
      "outputs": [],
      "stateMutability": "payable",
      "type": "function"
    },
    {
      "inputs": [],
      "name": "msgSender",
      "outputs": [
        {
          "internalType": "address",
          "name": "",
          "type": "address"
        }
      ],
      "stateMutability": "view",
      "type": "function"
    },
    {
      "inputs": [
        {
          "internalType": "bytes[]",
          "name": "data",
          "type": "bytes[]"
        }
      ],
      "name": "multicall",
      "outputs": [
        {
          "internalType": "bytes[]",
          "name": "results",
          "type": "bytes[]"
        }
      ],
      "stateMutability": "payable",
      "type": "function"
    },
    {
      "inputs": [],
      "name": "name",
      "outputs": [
        {
          "internalType": "string",
          "name": "",
          "type": "string"
        }
      ],
      "stateMutability": "view",
      "type": "function"
    },
    {
      "inputs": [],
      "name": "nextTokenId",
      "outputs": [
        {
          "internalType": "uint256",
          "name": "",
          "type": "uint256"
        }
      ],
      "stateMutability": "view",
      "type": "function"
    },
    {
      "inputs": [
        {
          "internalType": "address",
          "name": "owner",
          "type": "address"
        },
        {
          "internalType": "uint256",
          "name": "word",
          "type": "uint256"
        }
      ],
      "name": "nonces",
      "outputs": [
        {
          "internalType": "uint256",
          "name": "bitmap",
          "type": "uint256"
        }
      ],
      "stateMutability": "view",
      "type": "function"
    },
    {
      "inputs": [
        {
          "internalType": "uint256",
          "name": "id",
          "type": "uint256"
        }
      ],
      "name": "ownerOf",
      "outputs": [
        {
          "internalType": "address",
          "name": "owner",
          "type": "address"
        }
      ],
      "stateMutability": "view",
      "type": "function"
    },
    {
      "inputs": [
        {
          "internalType": "address",
          "name": "spender",
          "type": "address"
        },
        {
          "internalType": "uint256",
          "name": "tokenId",
          "type": "uint256"
        },
        {
          "internalType": "uint256",
          "name": "deadline",
          "type": "uint256"
        },
        {
          "internalType": "uint256",
          "name": "nonce",
          "type": "uint256"
        },
        {
          "internalType": "bytes",
          "name": "signature",
          "type": "bytes"
        }
      ],
      "name": "permit",
      "outputs": [],
      "stateMutability": "payable",
      "type": "function"
    },
    {
      "inputs": [
        {
          "internalType": "address",
          "name": "owner",
          "type": "address"
        },
        {
          "components": [
            {
              "components": [
                {
                  "internalType": "address",
                  "name": "token",
                  "type": "address"
                },
                {
                  "internalType": "uint160",
                  "name": "amount",
                  "type": "uint160"
                },
                {
                  "internalType": "uint48",
                  "name": "expiration",
                  "type": "uint48"
                },
                {
                  "internalType": "uint48",
                  "name": "nonce",
                  "type": "uint48"
                }
              ],
              "internalType": "struct IAllowanceTransfer.PermitDetails",
              "name": "details",
              "type": "tuple"
            },
            {
              "internalType": "address",
              "name": "spender",
              "type": "address"
            },
            {
              "internalType": "uint256",
              "name": "sigDeadline",
              "type": "uint256"
            }
          ],
          "internalType": "struct IAllowanceTransfer.PermitSingle",
          "name": "permitSingle",
          "type": "tuple"
        },
        {
          "internalType": "bytes",
          "name": "signature",
          "type": "bytes"
        }
      ],
      "name": "permit",
      "outputs": [
        {
          "internalType": "bytes",
          "name": "err",
          "type": "bytes"
        }
      ],
      "stateMutability": "payable",
      "type": "function"
    },
    {
      "inputs": [],
      "name": "permit2",
      "outputs": [
        {
          "internalType": "contract IAllowanceTransfer",
          "name": "",
          "type": "address"
        }
      ],
      "stateMutability": "view",
      "type": "function"
    },
    {
      "inputs": [
        {
          "internalType": "address",
          "name": "owner",
          "type": "address"
        },
        {
          "components": [
            {
              "components": [
                {
                  "internalType": "address",
                  "name": "token",
                  "type": "address"
                },
                {
                  "internalType": "uint160",
                  "name": "amount",
                  "type": "uint160"
                },
                {
                  "internalType": "uint48",
                  "name": "expiration",
                  "type": "uint48"
                },
                {
                  "internalType": "uint48",
                  "name": "nonce",
                  "type": "uint48"
                }
              ],
              "internalType": "struct IAllowanceTransfer.PermitDetails[]",
              "name": "details",
              "type": "tuple[]"
            },
            {
              "internalType": "address",
              "name": "spender",
              "type": "address"
            },
            {
              "internalType": "uint256",
              "name": "sigDeadline",
              "type": "uint256"
            }
          ],
          "internalType": "struct IAllowanceTransfer.PermitBatch",
          "name": "_permitBatch",
          "type": "tuple"
        },
        {
          "internalType": "bytes",
          "name": "signature",
          "type": "bytes"
        }
      ],
      "name": "permitBatch",
      "outputs": [
        {
          "internalType": "bytes",
          "name": "err",
          "type": "bytes"
        }
      ],
      "stateMutability": "payable",
      "type": "function"
    },
    {
      "inputs": [
        {
          "internalType": "address",
          "name": "owner",
          "type": "address"
        },
        {
          "internalType": "address",
          "name": "operator",
          "type": "address"
        },
        {
          "internalType": "bool",
          "name": "approved",
          "type": "bool"
        },
        {
          "internalType": "uint256",
          "name": "deadline",
          "type": "uint256"
        },
        {
          "internalType": "uint256",
          "name": "nonce",
          "type": "uint256"
        },
        {
          "internalType": "bytes",
          "name": "signature",
          "type": "bytes"
        }
      ],
      "name": "permitForAll",
      "outputs": [],
      "stateMutability": "payable",
      "type": "function"
    },
    {
      "inputs": [
        {
          "internalType": "bytes25",
          "name": "poolId",
          "type": "bytes25"
        }
      ],
      "name": "poolKeys",
      "outputs": [
        {
          "internalType": "Currency",
          "name": "currency0",
          "type": "address"
        },
        {
          "internalType": "Currency",
          "name": "currency1",
          "type": "address"
        },
        {
          "internalType": "uint24",
          "name": "fee",
          "type": "uint24"
        },
        {
          "internalType": "int24",
          "name": "tickSpacing",
          "type": "int24"
        },
        {
          "internalType": "contract IHooks",
          "name": "hooks",
          "type": "address"
        }
      ],
      "stateMutability": "view",
      "type": "function"
    },
    {
      "inputs": [],
      "name": "poolManager",
      "outputs": [
        {
          "internalType": "contract IPoolManager",
          "name": "",
          "type": "address"
        }
      ],
      "stateMutability": "view",
      "type": "function"
    },
    {
      "inputs": [
        {
          "internalType": "uint256",
          "name": "tokenId",
          "type": "uint256"
        }
      ],
      "name": "positionInfo",
      "outputs": [
        {
          "internalType": "PositionInfo",
          "name": "info",
          "type": "uint256"
        }
      ],
      "stateMutability": "view",
      "type": "function"
    },
    {
      "inputs": [
        {
          "internalType": "uint256",
          "name": "nonce",
          "type": "uint256"
        }
      ],
      "name": "revokeNonce",
      "outputs": [],
      "stateMutability": "payable",
      "type": "function"
    },
    {
      "inputs": [
        {
          "internalType": "address",
          "name": "from",
          "type": "address"
        },
        {
          "internalType": "address",
          "name": "to",
          "type": "address"
        },
        {
          "internalType": "uint256",
          "name": "id",
          "type": "uint256"
        }
      ],
      "name": "safeTransferFrom",
      "outputs": [],
      "stateMutability": "nonpayable",
      "type": "function"
    },
    {
      "inputs": [
        {
          "internalType": "address",
          "name": "from",
          "type": "address"
        },
        {
          "internalType": "address",
          "name": "to",
          "type": "address"
        },
        {
          "internalType": "uint256",
          "name": "id",
          "type": "uint256"
        },
        {
          "internalType": "bytes",
          "name": "data",
          "type": "bytes"
        }
      ],
      "name": "safeTransferFrom",
      "outputs": [],
      "stateMutability": "nonpayable",
      "type": "function"
    },
    {
      "inputs": [
        {
          "internalType": "address",
          "name": "operator",
          "type": "address"
        },
        {
          "internalType": "bool",
          "name": "approved",
          "type": "bool"
        }
      ],
      "name": "setApprovalForAll",
      "outputs": [],
      "stateMutability": "nonpayable",
      "type": "function"
    },
    {
      "inputs": [
        {
          "internalType": "uint256",
          "name": "tokenId",
          "type": "uint256"
        },
        {
          "internalType": "address",
          "name": "newSubscriber",
          "type": "address"
        },
        {
          "internalType": "bytes",
          "name": "data",
          "type": "bytes"
        }
      ],
      "name": "subscribe",
      "outputs": [],
      "stateMutability": "payable",
      "type": "function"
    },
    {
      "inputs": [
        {
          "internalType": "uint256",
          "name": "tokenId",
          "type": "uint256"
        }
      ],
      "name": "subscriber",
      "outputs": [
        {
          "internalType": "contract ISubscriber",
          "name": "subscriber",
          "type": "address"
        }
      ],
      "stateMutability": "view",
      "type": "function"
    },
    {
      "inputs": [
        {
          "internalType": "bytes4",
          "name": "interfaceId",
          "type": "bytes4"
        }
      ],
      "name": "supportsInterface",
      "outputs": [
        {
          "internalType": "bool",
          "name": "",
          "type": "bool"
        }
      ],
      "stateMutability": "view",
      "type": "function"
    },
    {
      "inputs": [],
      "name": "symbol",
      "outputs": [
        {
          "internalType": "string",
          "name": "",
          "type": "string"
        }
      ],
      "stateMutability": "view",
      "type": "function"
    },
    {
      "inputs": [
        {
          "internalType": "uint256",
          "name": "",
          "type": "uint256"
        }
      ],
      "name": "tokenURI",
      "outputs": [
        {
          "internalType": "string",
          "name": "",
          "type": "string"
        }
      ],
      "stateMutability": "pure",
      "type": "function"
    },
    {
      "inputs": [
        {
          "internalType": "address",
          "name": "from",
          "type": "address"
        },
        {
          "internalType": "address",
          "name": "to",
          "type": "address"
        },
        {
          "internalType": "uint256",
          "name": "id",
          "type": "uint256"
        }
      ],
      "name": "transferFrom",
      "outputs": [],
      "stateMutability": "nonpayable",
      "type": "function"
    },
    {
      "inputs": [
        {
          "internalType": "bytes",
          "name": "data",
          "type": "bytes"
        }
      ],
      "name": "unlockCallback",
      "outputs": [
        {
          "internalType": "bytes",
          "name": "",
          "type": "bytes"
        }
      ],
      "stateMutability": "nonpayable",
      "type": "function"
    },
    {
      "inputs": [
        {
          "internalType": "uint256",
          "name": "tokenId",
          "type": "uint256"
        }
      ],
      "name": "unsubscribe",
      "outputs": [],
      "stateMutability": "payable",
      "type": "function"
    },
    {
      "inputs": [],
      "name": "unsubscribeGasLimit",
      "outputs": [
        {
          "internalType": "uint256",
          "name": "",
          "type": "uint256"
        }
      ],
      "stateMutability": "view",
      "type": "function"
    }
  ],
  "bytecode": "0x610140806040523461048e57606081613e9f80380380916100208285610492565b83398101031261048e5780516001600160a01b038116810361048e576020820151916001600160a01b038316830361048e576040015190604051610065604082610492565b6018815260208101907f556e697377617020563420506f736974696f6e73204e46540000000000000000825260405161009f604082610492565b600b81526a554e492d56342d504f534d60a81b602082015281516001600160401b0381116103a2575f54600181811c91168015610484575b602082101461038457601f8111610422575b50806020601f82116001146103c1575f916103b6575b508160011b915f199060031b1c1916175f555b8051906001600160401b0382116103a25760015490600182811c92168015610398575b60208310146103845781601f849311610316575b50602090601f83116001146102b0575f926102a5575b50508160011b915f199060031b1c1916176001555b5190208060c0524660a05260405160208101917f8cad95687ba82c2ce50e74f7b754645e5117c3a5bec8151c0726d5857980a86683526040820152466060820152306080820152608081526101ca60a082610492565b51902060805260e052610100526101205260016008556040516139e990816104b6823960805181611c7c015260a05181611c56015260c05181611ccb015260e051818181610da0015281816112700152818161175d0152818161181701528181612298015281816129e901528181612a9c01528181612b1301528181612c0001528181612c54015281816133fd015281816134a1015281816135110152818161359001526136bb015261010051818181610f10015261270d01526101205181818161034d015281816108520152818161098901526135420152f35b015190505f8061015f565b60015f9081528281209350601f198516905b8181106102fe57509084600195949392106102e6575b505050811b01600155610174565b01515f1960f88460031b161c191690555f80806102d8565b929360206001819287860151815501950193016102c2565b60015f529091507fb10e2d527612073b26eecdfd717e6a320cf44b4afac2b0732d9fcbe2b7fa0cf6601f840160051c8101916020851061037a575b90601f859493920160051c01905b81811061036c5750610149565b5f815584935060010161035f565b9091508190610351565b634e487b7160e01b5f52602260045260245ffd5b91607f1691610135565b634e487b7160e01b5f52604160045260245ffd5b90508301515f6100ff565b5f8080528181209250601f198416905b81811061040a575090836001949392106103f2575b5050811b015f55610112565b8501515f1960f88460031b161c191690555f806103e6565b9192602060018192868a0151815501940192016103d1565b5f80527f290decd9548b62a8d60345a988386fc84ba6bc95484008f6362f93160ef3e563601f830160051c8101916020841061047a575b601f0160051c01905b81811061046f57506100e9565b5f8155600101610462565b9091508190610459565b90607f16906100d7565b5f80fd5b601f909101601f19168101906001600160401b038211908210176103a25760405256fe60806040526004361015610011575f80fd5b5f3560e01c80622a3e3a1461026357806301ffc9a71461025e57806305c1ee201461025957806306fdde0314610254578063081812fc1461024f578063095ea7b31461024a5780630f5730f11461024557806312261ee71461024057806316a241311461023b5780631efeed331461023657806323b872dd146102315780632b67b5701461022c5780632b9261de146102275780633644e515146102225780633aea60f01461021d5780633b1fda971461021857806342842e0e146102135780634767565f1461020e5780634afe393c14610209578063502e1a16146102045780636352211e146101ff57806370a08231146101fa57806375794a3c146101f55780637ba03aad146101f057806386b6be7d146101eb57806389097a6a146101e657806391dd7346146101e157806395d89b41146101dc578063a22cb465146101d7578063ac9650d8146101d2578063ad0b27fb146101cd578063b88d4fde146101c8578063c87b56dd146101c3578063d737d0c7146101be578063dc4c90d3146101b9578063dd46508f146101b45763e985e9c5146101af575f80fd5b6118db565b61178c565b611748565b611716565b6116c0565b6115b1565b61158a565b6114ac565b61141a565b611365565b61123d565b611213565b61118f565b61115d565b6110fd565b61107d565b61104d565b611004565b610f63565b610ef9565b610e25565b610ca0565b610bc9565b610b98565b610a21565b61093e565b610927565b6108b3565b610881565b61083d565b61074a565b6106ca565b610698565b6105b8565b61053f565b6104d1565b6102ef565b6001600160a01b0381160361027957565b5f80fd5b359061028882610268565b565b9181601f84011215610279578235916001600160401b038311610279576020838186019501011161027957565b805180835260209291819084018484015e5f828201840152601f01601f1916010190565b9060206102ec9281815201906102b7565b90565b60603660031901126102795760043561030781610268565b602435906001600160401b03821161027957813603916060600319840112610279576044356001600160401b0381116102795761034890369060040161028a565b6060947f00000000000000000000000000000000000000000000000000000000000000006001600160a01b031693909290843b1561027957604051632a2d80d160e01b81526001600160a01b039096166004808801919091526060602488015260c4870194908201359060221901811215610279578101602460048201359101946001600160401b038211610279578160071b360386136102795760606064890152819052869460e48601949392915f5b818110610497575050506104485f96948694889460448561043061042060248b990161027d565b6001600160a01b03166084890152565b013560a4860152848303600319016044860152611a1d565b03925af1908161047d575b506104745750610470610464611a86565b604051918291826102db565b0390f35b61047090610464565b8061048b5f61049193610597565b80610559565b5f610453565b91965091929394608080826104ae6001948b6119be565b0197019101918896959493926103f9565b6001600160e01b031981160361027957565b346102795760203660031901126102795760206004356104f0816104bf565b63ffffffff60e01b166301ffc9a760e01b811490811561052e575b811561051d575b506040519015158152f35b635b5e139f60e01b1490505f610512565b6380ac58cd60e01b8114915061050b565b60203660031901126102795761055760043533611f33565b005b5f91031261027957565b634e487b7160e01b5f52604160045260245ffd5b60a081019081106001600160401b0382111761059257604052565b610563565b90601f801991011681019081106001600160401b0382111761059257604052565b34610279575f366003190112610279576040515f80548060011c906001811690811561068e575b60208310821461067a5782855260208501919081156106615750600114610611575b6104708461046481860382610597565b5f8080529250907f290decd9548b62a8d60345a988386fc84ba6bc95484008f6362f93160ef3e5635b81841061064d5750500161046482610601565b80548484015260209093019260010161063a565b60ff191682525090151560051b01905061046482610601565b634e487b7160e01b5f52602260045260245ffd5b91607f16916105df565b34610279576020366003190112610279576004355f526004602052602060018060a01b0360405f205416604051908152f35b34610279576040366003190112610279576004356106e781610268565b6024355f818152600260205260409020546001600160a01b0316913383141580610727575b6107195761055792611f79565b6282b42960e81b5f5260045ffd5b505f83815260056020908152604080832033845290915290205460ff161561070c565b60a03660031901126102795760043561076281610268565b60243560443591606435926084356001600160401b0381116102795761078c90369060040161028a565b9482421161082e5761082385610829936105579861081d885f80998682526002602052818960018060a01b036040832054169c8d9981604051977f49ecf333e5b8c95c40fdafc95c1ad136e8914a8fb55e9dc8bb01eaa83a2df9ad8952602089019060018060a01b031681526040890192835260608901948552608089019687528160a08a20995252525252611fd3565b91612058565b82611f33565b611f79565b635a9165ff60e01b5f5260045ffd5b34610279575f366003190112610279576040517f00000000000000000000000000000000000000000000000000000000000000006001600160a01b03168152602090f35b34610279576020366003190112610279576004355f526007602052602060018060a01b0360405f205416604051908152f35b346102795760203660031901126102795760206108ea6004356108d581611ded565b919082851c60020b9260081c60020b916121ec565b6001600160801b0360405191168152f35b60609060031901126102795760043561091381610268565b9060243561092081610268565b9060443590565b3461027957610557610938366108fb565b91611ab5565b6101003660031901126102795760043561095781610268565b60c03660231901126102795760e4356001600160401b0381116102795761098290369060040161028a565b60609290917f00000000000000000000000000000000000000000000000000000000000000006001600160a01b0316803b1561027957610448935f8094604051968795869485936302b67b5760e41b855260018060a01b031660048501526109ec60248501611952565b60a4356109f881610268565b6001600160a01b031660a485015260c43560c485015261010060e4850152610104840191611a1d565b606036600319011261027957602435600435610a3c82610268565b6044356001600160401b03811161027957610a5b90369060040161028a565b610a68839492943361245c565b15610b85575f8381526007602052604090206001600160a01b0390610a95905b546001600160a01b031690565b1680610b6257505f83815260096020526040902080546001179055610b3290610b2e905f8581526007602052604090206001600160a01b03851696610b2891610afa9089905b80546001600160a01b0319166001600160a01b03909216919091179055565b610b1a6040519384926346abfb5960e11b60208501528960248501611c3c565b03601f198101835282610597565b836124f2565b1590565b610b5d57507f9709492381f90bdc5938bb4e3b8e35b7e0eac8af058619e27191c5a40ce79fa95f80a3005b61251a565b6312fdec5f60e11b5f5260048490526001600160a01b031660245260445ffd5b5ffd5b6301952d1b60e31b5f523360045260245ffd5b34610279575f366003190112610279576020610bb2611c53565b604051908152f35b60443590811515820361027957565b60c036600319011261027957600435610be181610268565b602435610bed81610268565b610bf5610bba565b906064359260843560a4356001600160401b03811161027957610c1c90369060040161028a565b86929192421161082e5783610c9b936108239261081d885f6105579c8189818f81604051977f6673cb397ee2a50b6b8401653d3638b4ac8b3db9c28aa6870ffceb7574ec2f768952602089019060018060a01b03168152600160408a019316835260608901948552608089019687528160a08a20995252525252611fd3565b6125b9565b366003190160e081126102795760a0136102795760a435610cc081610268565b60c435906001600160401b03821161027957610d8a602091610ce9610d9b94369060040161028a565b9490604051958694859463695c5bf560e01b8652600435610d0981610268565b6001600160a01b03166004870152602435610d2381610268565b6001600160a01b0316602487015262ffffff604435610d4181611d30565b166044870152606435610d5381611d10565b60020b6064870152610d7a608435610d6a81610268565b6001600160a01b03166084880152565b6001600160a01b031660a4860152565b60e060c485015260e4840191611a1d565b03815f7f00000000000000000000000000000000000000000000000000000000000000006001600160a01b03165af18015610e2057610470915f91610df1575b5060405160029190910b81529081906020820190565b610e13915060203d602011610e19575b610e0b8183610597565b810190611d1b565b5f610ddb565b503d610e01565b611a3d565b3461027957610e33366108fb565b610e408183859495611ab5565b823b15918215610e54575b61055783611d52565b604051630a85bd0160e11b81523360048201526001600160a01b0391821660248201526044810192909252608060648301525f60848301819052919360209350849260a4928492165af18015610e2057610557915f91610eca575b506001600160e01b031916630a85bd0160e11b145f80610e4b565b610eec915060203d602011610ef2575b610ee48183610597565b810190611d3d565b5f610eaf565b503d610eda565b34610279575f3660031901126102795760206040517f00000000000000000000000000000000000000000000000000000000000000008152f35b9181601f84011215610279578235916001600160401b038311610279576020808501948460051b01011161027957565b6040366003190112610279576004356001600160401b03811161027957610f8e90369060040161028a565b6024356001600160401b03811161027957610fad903690600401610f33565b915f805160206139948339815191525c6001600160a01b0316610ff557610fe393335f805160206139948339815191525d61263c565b5f5f805160206139948339815191525d005b6337affdbf60e11b5f5260045ffd5b346102795760403660031901126102795760043561102181610268565b6024359060018060a01b03165f52600660205260405f20905f52602052602060405f2054604051908152f35b3461027957602036600319011261027957602061106b600435611dca565b6040516001600160a01b039091168152f35b346102795760203660031901126102795760043561109a81610268565b6001600160a01b031680156110c9575f52600360205261047060405f2054604051918291829190602083019252565b60405162461bcd60e51b815260206004820152600c60248201526b5a45524f5f4144445245535360a01b6044820152606490fd5b34610279575f366003190112610279576020600854604051908152f35b80516001600160a01b03908116835260208083015182169084015260408083015162ffffff169084015260608083015160020b9084015260809182015116910152565b346102795760203660031901126102795760c061117b600435611ded565b611188604051809361111a565b60a0820152f35b346102795760203660031901126102795760043566ffffffffffffff198116809103610279575f908152600a60209081526040918290208054600182015460029283015485516001600160a01b0393841681528383169581019590955260a082811c62ffffff169686019690965260b89190911c90920b6060840152166080820152f35b34610279576020366003190112610279576004355f526009602052602060405f2054604051908152f35b34610279576020366003190112610279576004356001600160401b0381116102795761126d90369060040161028a565b907f00000000000000000000000000000000000000000000000000000000000000006001600160a01b031633036113565760408135189063ffffffff60408201351663ffffffe0601f8201169260608401602084013518179282019260608401359483641fffffffe08760051b16805f905b88818310611327579050608092915001019101101761131a576060608063ffffffff61130f96169401920161263c565b610470610464611a72565b633b99b53d5f526004601cfd5b8294509263ffffffe0601f60808060209687969801013599848b1817998d0101350116010192018692916112df565b63570c108560e11b5f5260045ffd5b34610279575f366003190112610279576040515f6001548060011c9060018116908115611410575b60208310821461067a57828552602085019190811561066157506001146113be576104708461046481860382610597565b60015f9081529250907fb10e2d527612073b26eecdfd717e6a320cf44b4afac2b0732d9fcbe2b7fa0cf65b8184106113fc5750500161046482610601565b8054848401526020909301926001016113e9565b91607f169161138d565b346102795760403660031901126102795760043561143781610268565b60243580151581036102795761055791336125b9565b602081016020825282518091526040820191602060408360051b8301019401925f915b83831061147f57505050505090565b909192939460208061149d600193603f1986820301875289516102b7565b97019301930191939290611470565b6020366003190112610279576004356001600160401b038111610279576114d7903690600401610f33565b906114e182611ea1565b916114ef6040519384610597565b808352601f196114fe82611ea1565b015f5b8181106115795750505f5b8181106115215760405180610470868261144d565b5f8061152e838587611ecc565b9061153e60405180938193611f12565b0390305af461154b611a86565b9015611571579060019161155f8287611f1f565b5261156a8186611f1f565b500161150c565b602081519101fd5b806060602080938801015201611501565b6020366003190112610279576004356115a3813361245c565b15610b85576105579061268c565b34610279576080366003190112610279576004356115ce81610268565b602435906115db82610268565b604435916064356001600160401b038111610279576115fe90369060040161028a565b91909361160c818386611ab5565b813b15938415611620575b61055785611d52565b602094505f9061166660405197889687958694630a85bd0160e11b865233600487015260018060a01b031660248601526044850152608060648501526084840191611a1d565b03926001600160a01b03165af18015610e2057610557915f916116a1575b506001600160e01b031916630a85bd0160e11b145f808080611617565b6116ba915060203d602011610ef257610ee48183610597565b5f611684565b34610279576020366003190112610279576104706040516116e2604082610597565b601381527268747470733a2f2f6578616d706c652e636f6d60681b60208201526040519182916020835260208301906102b7565b34610279575f366003190112610279576040516001600160a01b035f805160206139948339815191525c168152602090f35b34610279575f366003190112610279576040517f00000000000000000000000000000000000000000000000000000000000000006001600160a01b03168152602090f35b6040366003190112610279576004356001600160401b038111610279576117b790369060040161028a565b6024355f805160206139948339815191525c6001600160a01b0316610ff557335f805160206139948339815191525d8042116118c9576040516348c8949160e01b8152602060048201525f8180611812602482018789611a1d565b0381837f00000000000000000000000000000000000000000000000000000000000000006001600160a01b03165af18015610e2057611854575b61055761262a565b3d805f833e6118638183610597565b810190602081830312610279578051906001600160401b038211610279570181601f8201121561027957805161189881611a57565b926118a66040519485610597565b81845260208284010111610279575f928160208094018483015e0101528061184c565b63bfb22adf60e01b5f5260045260245ffd5b3461027957604036600319011261027957602060ff6119336004356118ff81610268565b6024359061190c82610268565b60018060a01b03165f526005845260405f209060018060a01b03165f5260205260405f2090565b54166040519015158152f35b359065ffffffffffff8216820361027957565b60243561195e81610268565b6001600160a01b0316815260443561197581610268565b6001600160a01b0316602082015260643565ffffffffffff81169081900361027957604082015260843565ffffffffffff811681036102795765ffffffffffff60609116910152565b65ffffffffffff611a176060809380356119d781610268565b6001600160a01b0316865260208101356119f081610268565b6001600160a01b0316602087015283611a0b6040830161193f565b1660408701520161193f565b16910152565b908060209392818452848401375f828201840152601f01601f1916010190565b6040513d5f823e3d90fd5b60405190610288608083610597565b6001600160401b03811161059257601f01601f191660200190565b60405190611a81602083610597565b5f8252565b3d15611ab0573d90611a9782611a57565b91611aa56040519384610597565b82523d5f602084013e565b606090565b82611ada611ace610a88835f52600260205260405f2090565b6001600160a01b031690565b6001600160a01b03831690611af0908214612309565b6001600160a01b03841690611b06821515612342565b8033148015611c00575b8015611bdb575b611b2090612382565b6001600160a01b038481165f90815260036020908152604080832080545f190190559288168252828220805460010190558582526002905220611b64908690610adb565b611b89611b79845f52600460205260405f2090565b80546001600160a01b0319169055565b7fddf252ad1be2c89b69c2b068fc378daa952ba7f163c4a11628f55a4df523b3ef5f80a4611bc9611bc2845f52600960205260405f2090565b5460ff1690565b611bd257505050565b610288926123bf565b50611b20611bf7611ace610a88865f52600460205260405f2090565b33149050611b17565b50611c37611bc233611c228760018060a01b03165f52600560205260405f2090565b9060018060a01b03165f5260205260405f2090565b611b10565b6040906102ec949281528160208201520191611a1d565b467f000000000000000000000000000000000000000000000000000000000000000003611c9e577f000000000000000000000000000000000000000000000000000000000000000090565b60405160208101907f8cad95687ba82c2ce50e74f7b754645e5117c3a5bec8151c0726d5857980a86682527f0000000000000000000000000000000000000000000000000000000000000000604082015246606082015230608082015260808152611d0a60a082610597565b51902090565b8060020b0361027957565b9081602091031261027957516102ec81611d10565b62ffffff81160361027957565b9081602091031261027957516102ec816104bf565b15611d5957565b60405162461bcd60e51b815260206004820152601060248201526f155394d0519157d49150d2541251539560821b6044820152606490fd5b15611d9857565b60405162461bcd60e51b815260206004820152600a6024820152691393d517d3525395115160b21b6044820152606490fd5b5f908152600260205260409020546001600160a01b031690610288821515611d91565b5f6080604051611dfc81610577565b82815282602082015282604082015282606082015201525f52600960205260405f20548066ffffffffffffff19165f52600a60205260405f20611e9e611e8e600260405193611e4a85610577565b80546001600160a01b0390811686526001820154908116602087015262ffffff60a082901c16604087015260b81c60020b606086015201546001600160a01b031690565b6001600160a01b03166080830152565b91565b6001600160401b0381116105925760051b60200190565b634e487b7160e01b5f52603260045260245ffd5b9190811015611f0d5760051b81013590601e19813603018212156102795701908135916001600160401b038311610279576020018236038113610279579190565b611eb8565b908092918237015f815290565b8051821015611f0d5760209160051b010190565b90600160ff82161b9160018060a01b03165f52600660205260405f209060081c5f5260205260405f20818154188091551615611f6b57565b623f613760e71b5f5260045ffd5b5f83815260046020526040902080546001600160a01b0319166001600160a01b038416179055906001600160a01b0390811691167f8c5be1e5ebec7d5bd14f71427d1e84f3dd0314c0f7b2291e5b200ac8c7c3b9255f80a4565b90611fdc611c53565b916040519261190160f01b8452600284015260228301525f604060428420938281528260208201520152565b9190826040910312610279576020823592013590565b634e487b7160e01b5f52601160045260245ffd5b60ff601b9116019060ff821161204457565b61201e565b9060401015611f0d5760400190565b90833b612163576041810361211757906020926120c9836120a161209b61208d6120855f98880188612008565b949097612049565b356001600160f81b03191690565b60f81c90565b935b604051948594859094939260ff6060936080840197845216602083015260408201520152565b838052039060015afa15610e20575f516001600160a01b0316908115612108576001600160a01b0316036120f957565b632057875960e21b5f5260045ffd5b638baa579f60e01b5f5260045ffd5b906040820361215457602092612134825f946120c9940190612008565b9092906001600160ff1b0381169061214e9060ff1c612032565b936120a3565b634be6321b60e01b5f5260045ffd5b90926121899360209360405195869485938493630b135d3f60e11b855260048501611c3c565b03916001600160a01b03165afa908115610e20575f916121cd575b506001600160e01b0319166374eca2c160e11b016121be57565b632c19a72f60e21b5f5260045ffd5b6121e6915060203d602011610ef257610ee48183610597565b5f6121a4565b929160a092604051946026860152600685015260038401523083525f603a600c85012093816040820152816020820152522060405160208101918252600660408201526040815261223e606082610597565b5190206006810180911161204457604080516020818101948552918101929092526122949290916122728160608101610b1a565b51902060405180938192631e2eaeaf60e01b8352600483019190602083019252565b03817f00000000000000000000000000000000000000000000000000000000000000006001600160a01b03165afa8015610e20576001600160801b03915f916122dc57501690565b6122fe915060203d602011612302575b6122f68183610597565b810190612790565b1690565b503d6122ec565b1561231057565b60405162461bcd60e51b815260206004820152600a60248201526957524f4e475f46524f4d60b01b6044820152606490fd5b1561234957565b60405162461bcd60e51b81526020600482015260116024820152701253959053125117d49150d25412515395607a1b6044820152606490fd5b1561238957565b60405162461bcd60e51b815260206004820152600e60248201526d1393d517d055551213d49256915160921b6044820152606490fd5b61241f9192815f52600760205260018060a01b0360405f205416936040519263876fda0760e01b6020850152602484015260018060a01b0316604483015260018060a01b0316606482015260648152612419608482610597565b826124f2565b156124275750565b3d6040519163263bc7b560e01b8352600483015260406024830152806044830152805f606484013e601f801991011660640190fd5b6001600160a01b0361246d83611dca565b6001600160a01b03831691168114929083156124d1575b50821561249057505090565b60ff92506124cc91906001600160a01b03906124ab90611dca565b165f52600560205260405f209060018060a01b03165f5260205260405f2090565b541690565b5f828152600460205260408120546001600160a01b03169091149350612484565b803b1561250b57815f92918360208194519301915af190565b637c402b2160e01b5f5260045ffd5b3d604051916363b23e9f60e01b8352600483015260406024830152806044830152805f606484013e601f801991011660640190fd5b3d60405191632c4b17e760e21b8352600483015260406024830152806044830152805f606484013e601f801991011660640190fd5b3d60405191638549db5960e01b8352600483015260406024830152806044830152805f606484013e601f801991011660640190fd5b6001600160a01b039081165f818152600560209081526040808320948616835293815292902090927f17307eab39ab6107e8899845ad3d59bd9653f200f220920489ca2b5937696c319291805460ff191695151560ff81169690961790556040519485526001600160a01b031693a3565b5f5f805160206139948339815191525d565b9092919382840361267d575f5b848110156126755760019061266f81850161266583888b611ecc565b913560f81c6127ae565b01612649565b509350505050565b63aaad13f760e01b5f5260045ffd5b5f8181526007602052604090206001600160a01b03906126ab90610a88565b16908115612781575f818152600960205260409020805460ff191690556126dd611b79825f52600760205260405f2090565b813b61270a575b7fa0ebb1de82db929a9153472f37d3a66dbede4436258311ad0f52a35a2c91d1505f80a3565b5a7f000000000000000000000000000000000000000000000000000000000000000080911061277c57823b1561027957604051632bd1774560e21b815260048101839052905f908290602490829084908890f1612768575b506126e4565b8061048b5f61277693610597565b5f612762565b61279f565b63046fcd8560e31b5f5260045ffd5b90816020910312610279575190565b6376a1e1d360e11b5f5260045ffd5b909190600981101561286557806127d957506127cd906102889261321d565b949390939291926132b1565b600181036127fb57506127ef906102889261321d565b9493909392919261325f565b6002810361282a57506128146128249161028893612eda565b9890979691959295949394612987565b9561307a565b916003831461284d575050610b8291505b635cda29d760e01b5f52600452602490565b61028892509061285c91612d41565b93929092612d7d565b90506011810361288057506102889060208101359035612d16565b601581036128b257506128ac6128a3610288928035916040602083013592013590565b92909192612987565b91612cfb565b600981036128f057506128e46128ea6128d8610288938035916040602083013592013590565b93829493929193612b94565b92612baf565b91612bd4565b6012810361292c5750612926612920612916610288938035916040602083013592013590565b9282949291612987565b92612afc565b91612b10565b6017810361293f57506102889035612a95565b60188103612958575061028890602081013590356129d7565b906019821461296c5750610b82915061283b565b61028891508035906129819060200135612987565b906129b9565b6001600160a01b038116600181036129ad5750505f805160206139948339815191525c90565b6002036102ec57503090565b906129c3826132ff565b90816129ce57505050565b61028892613365565b6129e0816133f6565b918211612a6b577f00000000000000000000000000000000000000000000000000000000000000006001600160a01b031691823b156102795760405163203c2d1360e21b81526001600160a01b0390921660048301526024820152905f908290604490829084905af18015610e2057612a565750565b80612a625f8093610597565b80031261027957565b90610288915f805160206139948339815191525c90612b10565b600160ff1b8114612044575f0390565b612ac081307f000000000000000000000000000000000000000000000000000000000000000061344d565b5f805160206139948339815191525c905f811215612ae657906128ea6102889392612a85565b905f8213612af357505050565b61028892612b10565b9081612b0c576102ec91506133f6565b5090565b907f00000000000000000000000000000000000000000000000000000000000000006001600160a01b0316803b1561027957604051630b0d9c0960e01b81526001600160a01b03938416600482015291909216602482015260448101929092525f908290606490829084905af18015610e2057612b8a5750565b5f61028891610597565b15612bab575f805160206139948339815191525c90565b3090565b90600160ff1b8203612bc5576102ec91506132ff565b81612b0c576102ec915061349a565b91906001600160a01b038316612c525750604051630476982d60e21b81529150602090829060049082907f00000000000000000000000000000000000000000000000000000000000000006001600160a01b03165af18015610e2057612c375750565b612c4f9060203d602011612302576122f68183610597565b50565b7f00000000000000000000000000000000000000000000000000000000000000006001600160a01b031690813b1561027957604051632961046560e21b81526001600160a01b0385166004820152925f8460248183875af1918215610e20575f95602095612cc594612ce7575b506134f7565b600460405180948193630476982d60e21b83525af18015610e2057612c375750565b8061048b89612cf593610597565b5f612cbf565b91612d0d6102889382612926826133f6565b612926826133f6565b9061028891612d385f805160206139948339815191525c91826128ea8261349a565b6128ea8261349a565b919082359260208101359260408201359263ffffffff60608401351683019063ffffffff8235169360208084019386010191011061131a579190565b935f805160206139948339815191525c612d97868261245c565b15612eba575090849291612daa84611ded565b9590916001600160801b03612dcd8860201c60020b8960081c60020b868a6121ec565b1691865f5260096020525f6040812055865f526002602052865f60018060a01b03604082205416612dff811515611d91565b80825260036020526040822082198154019055612e27611b79845f52600260205260405f2090565b612e3c611b79845f52600460205260405f2090565b7fddf252ad1be2c89b69c2b068fc378daa952ba7f163c4a11628f55a4df523b3ef8280a482612e80575b5050505050505060ff16612e775750565b6102889061268c565b612eae96612ea994612e9c612e97612ea3966135ef565b612a85565b908a613669565b90613742565b613776565b815f8080808080612e66565b6301952d1b60e31b5f9081526001600160a01b0391909116600452602490fd5b9091819260a08301359260c08101359260e08201359261010083013592610120810135926101408201359263ffffffff6101608401351683019063ffffffff8235169360208084019386010191011061131a579190565b91908260a091031261027957604051612f4981610577565b60808082948035612f5981610268565b84526020810135612f6981610268565b60208501526040810135612f7c81611d30565b60408501526060810135612f8f81611d10565b6060850152013591612fa083610268565b0152565b6002608061028893612fd68135612fba81610268565b85546001600160a01b0319166001600160a01b03909116178555565b600184016130076020830135612feb81610268565b82546001600160a01b0319166001600160a01b03909116178255565b604082013561301581611d30565b8154606084013561302581611d10565b60b81b62ffffff60b81b169162ffffff60a01b9060a01b169065ffffffffffff60a01b19161717905501359161305a83610268565b0180546001600160a01b0319166001600160a01b03909216919091179055565b909194969297939597600854926001840160085560018060a01b038a16996130a38b1515612342565b5f858152600260205260409020546001600160a01b03166131e7576131626131b6986131b093876102889e613108866130ef6131a89860018060a01b03165f52600360205260405f2090565b80546001019055610adb845f52600260205260405f2090565b5f7fddf252ad1be2c89b69c2b068fc378daa952ba7f163c4a11628f55a4df523b3ef8180a46131373688612f31565b63ffffff0066ffffff000000009160a066ffffffffffffff199120169260081b169260201b16171790565b9283613176875f52600960205260405f2090565b5566ffffffffffffff1984165f818152600a6020526040902060010154869060b81c60020b156131bc575b50506135ef565b923690612f31565b90613669565b50613800565b6131db6131e09266ffffffffffffff19165f52600a60205260405f2090565b612fa4565b5f856131a1565b60405162461bcd60e51b815260206004820152600e60248201526d1053149150511657d3525395115160921b6044820152606490fd5b909181359260208301359260408101359260608201359263ffffffff60808401351683019063ffffffff8235169360208084019386010191011061131a579190565b90959495939192935f805160206139948339815191525c613280838261245c565b15612eba575095612ea99282612e9761028898996132ab6132a3612ea397611ded565b9390926135ef565b91613669565b90959495939192935f805160206139948339815191525c6132d2838261245c565b15612eba5750956132fa92826132ab61028898996132f2612ea396611ded565b9290916135ef565b613800565b6001600160a01b03811661331257504790565b6040516370a0823160e01b815230600482015290602090829060249082906001600160a01b03165afa908115610e20575f9161334c575090565b6102ec915060203d602011612302576122f68183610597565b9091906001600160a01b03811661339257505f80808061338694865af11590565b61338d5750565b612584565b6040805163a9059cbb60e01b81526001600160a01b039094166004850152602484019290925291905f9060208260448582885af13d15601f3d116001855114161716928281528260208201520152156133e85750565b6001600160a01b031661254f565b61342181307f000000000000000000000000000000000000000000000000000000000000000061344d565b905f821261342d575090565b634c085bf160e01b5f9081526001600160a01b0391909116600452602490fd5b6001600160a01b039182165f9081529282166020908152604093849020935163789add5560e11b815260048101949094529183916024918391165afa908115610e20575f9161334c575090565b6134c581307f000000000000000000000000000000000000000000000000000000000000000061344d565b905f82136134d757506102ec90612a85565b63019a8d9360e51b5f9081526001600160a01b0391909116600452602490fd5b9091906001600160a01b038316300361353f5761028892507f00000000000000000000000000000000000000000000000000000000000000006001600160a01b031690613365565b907f00000000000000000000000000000000000000000000000000000000000000006001600160a01b0316803b1561027957604051631b63c28b60e11b81526001600160a01b0394851660048201527f00000000000000000000000000000000000000000000000000000000000000008516602482015291841660448301529190921660648301525f908290608490829084905af18015610e20576135e15750565b8061048b5f61028893610597565b905f82126135f957565b6393dafdf160e01b5f5260045ffd5b9190826040910312610279576020825192015190565b60606102ec9593613632836101409561111a565b805160020b60a0840152602081015160020b60c0840152604081015160e08401520151610100820152816101208201520191611a1d565b9593946040916136b661367a611a48565b60088a901c60020b81529260208a811c60020b90850152858585015286606085015284519889948594632d35e7ed60e11b86526004860161361e565b03815f7f00000000000000000000000000000000000000000000000000000000000000006001600160a01b03165af1908115610e20575f945f9261370e575b5081949560ff1661370557505050565b610288926138e9565b909450613733915060403d60401161373b575b61372b8183610597565b810190613608565b90935f6136f5565b503d613721565b613765906137578360801d8260801d0361396f565b92600f0b90600f0b0361396f565b6001600160801b03169060801b1790565b929190926001600160801b038160801d94816137918761397d565b911691829116106137ee57506001600160801b03929350600f0b90826137b68361397d565b911692839116106137c5575050565b906137d76001600160801b039261397d565b90630940b79160e11b5f526004521660245260445ffd5b6001600160801b03906137d78661397d565b908160801d600f0b91600f0b915f8112806138c6575b61388f5750505f81128061386a575b61382d575050565b9061384961383d610b8293612a85565b6001600160801b031690565b63031e30ad60e41b5f526001600160801b0391821660045216602452604490565b506001600160801b038061387d83612a85565b16166001600160801b03831610613825565b906001600160801b036138a4610b8293612a85565b63031e30ad60e41b5f526001600160801b039283166004521616602452604490565b506001600160801b036138d882612a85565b166001600160801b03831610613816565b6139339192815f52600760205260018060a01b0360405f205416936040519263d8865c2760e01b602085015260248401526044830152606482015260648152612419608482610597565b1561393b5750565b3d60405191622ad16d60e61b8352600483015260406024830152806044830152805f606484013e601f801991011660640190fd5b9081600f0b9182036135f957565b5f81600f0b126135f9576001600160801b03169056fe0aedd6bde10e3aa2adec092b02a3e3e805795516cda41f27aa145b8f300af87aa2646970667358221220db94eb4c46aacf3a5adeeaf53e94017a9dc58b3b15338870ab0394e7f83f042964736f6c634300081a0033",
  "linkReferences": {},
  "deployedLinkReferences": {}
}