{
  "_format": "hh-sol-artifact-1",
  "contractName": "USDCToken",
  "sourceName": "contracts/USDC.sol",
  "abi": [
    {
      "inputs": [
        {
          "internalType": "uint256",
          "name": "initialSupply",
          "type": "uint256"
        }
      ],
      "stateMutability": "nonpayable",
      "type": "constructor"
    },
    {
      "inputs": [
        {
          "internalType": "address",
          "name": "spender",
          "type": "address"
        },
        {
          "internalType": "uint256",
          "name": "allowance",
          "type": "uint256"
        },
        {
          "internalType": "uint256",
          "name": "needed",
          "type": "uint256"
        }
      ],
      "name": "ERC20InsufficientAllowance",
      "type": "error"
    },
    {
      "inputs": [
        {
          "internalType": "address",
          "name": "sender",
          "type": "address"
        },
        {
          "internalType": "uint256",
          "name": "balance",
          "type": "uint256"
        },
        {
          "internalType": "uint256",
          "name": "needed",
          "type": "uint256"
        }
      ],
      "name": "ERC20InsufficientBalance",
      "type": "error"
    },
    {
      "inputs": [
        {
          "internalType": "address",
          "name": "approver",
          "type": "address"
        }
      ],
      "name": "ERC20InvalidApprover",
      "type": "error"
    },
    {
      "inputs": [
        {
          "internalType": "address",
          "name": "receiver",
          "type": "address"
        }
      ],
      "name": "ERC20InvalidReceiver",
      "type": "error"
    },
    {
      "inputs": [
        {
          "internalType": "address",
          "name": "sender",
          "type": "address"
        }
      ],
      "name": "ERC20InvalidSender",
      "type": "error"
    },
    {
      "inputs": [
        {
          "internalType": "address",
          "name": "spender",
          "type": "address"
        }
      ],
      "name": "ERC20InvalidSpender",
      "type": "error"
    },
    {
      "inputs": [
        {
          "internalType": "address",
          "name": "owner",
          "type": "address"
        }
      ],
      "name": "OwnableInvalidOwner",
      "type": "error"
    },
    {
      "inputs": [
        {
          "internalType": "address",
          "name": "account",
          "type": "address"
        }
      ],
      "name": "OwnableUnauthorizedAccount",
      "type": "error"
    },
    {
      "anonymous": false,
      "inputs": [
        {
          "indexed": true,
          "internalType": "address",
          "name": "owner",
          "type": "address"
        },
        {
          "indexed": true,
          "internalType": "address",
          "name": "spender",
          "type": "address"
        },
        {
          "indexed": false,
          "internalType": "uint256",
          "name": "value",
          "type": "uint256"
        }
      ],
      "name": "Approval",
      "type": "event"
    },
    {
      "anonymous": false,
      "inputs": [
        {
          "indexed": true,
          "internalType": "address",
          "name": "previousOwner",
          "type": "address"
        },
        {
          "indexed": true,
          "internalType": "address",
          "name": "newOwner",
          "type": "address"
        }
      ],
      "name": "OwnershipTransferred",
      "type": "event"
    },
    {
      "anonymous": false,
      "inputs": [
        {
          "indexed": true,
          "internalType": "address",
          "name": "from",
          "type": "address"
        },
        {
          "indexed": true,
          "internalType": "address",
          "name": "to",
          "type": "address"
        },
        {
          "indexed": false,
          "internalType": "uint256",
          "name": "value",
          "type": "uint256"
        }
      ],
      "name": "Transfer",
      "type": "event"
    },
    {
      "inputs": [
        {
          "internalType": "address",
          "name": "owner",
          "type": "address"
        },
        {
          "internalType": "address",
          "name": "spender",
          "type": "address"
        }
      ],
      "name": "allowance",
      "outputs": [
        {
          "internalType": "uint256",
          "name": "",
          "type": "uint256"
        }
      ],
      "stateMutability": "view",
      "type": "function"
    },
    {
      "inputs": [
        {
          "internalType": "address",
          "name": "spender",
          "type": "address"
        },
        {
          "internalType": "uint256",
          "name": "value",
          "type": "uint256"
        }
      ],
      "name": "approve",
      "outputs": [
        {
          "internalType": "bool",
          "name": "",
          "type": "bool"
        }
      ],
      "stateMutability": "nonpayable",
      "type": "function"
    },
    {
      "inputs": [
        {
          "internalType": "address",
          "name": "account",
          "type": "address"
        }
      ],
      "name": "balanceOf",
      "outputs": [
        {
          "internalType": "uint256",
          "name": "",
          "type": "uint256"
        }
      ],
      "stateMutability": "view",
      "type": "function"
    },
    {
      "inputs": [
        {
          "internalType": "address",
          "name": "from",
          "type": "address"
        },
        {
          "internalType": "uint256",
          "name": "amount",
          "type": "uint256"
        }
      ],
      "name": "burn",
      "outputs": [],
      "stateMutability": "nonpayable",
      "type": "function"
    },
    {
      "inputs": [],
      "name": "decimals",
      "outputs": [
        {
          "internalType": "uint8",
          "name": "",
          "type": "uint8"
        }
      ],
      "stateMutability": "view",
      "type": "function"
    },
    {
      "inputs": [
        {
          "internalType": "address",
          "name": "to",
          "type": "address"
        },
        {
          "internalType": "uint256",
          "name": "amount",
          "type": "uint256"
        }
      ],
      "name": "mint",
      "outputs": [],
      "stateMutability": "nonpayable",
      "type": "function"
    },
    {
      "inputs": [],
      "name": "name",
      "outputs": [
        {
          "internalType": "string",
          "name": "",
          "type": "string"
        }
      ],
      "stateMutability": "view",
      "type": "function"
    },
    {
      "inputs": [],
      "name": "owner",
      "outputs": [
        {
          "internalType": "address",
          "name": "",
          "type": "address"
        }
      ],
      "stateMutability": "view",
      "type": "function"
    },
    {
      "inputs": [],
      "name": "renounceOwnership",
      "outputs": [],
      "stateMutability": "nonpayable",
      "type": "function"
    },
    {
      "inputs": [],
      "name": "symbol",
      "outputs": [
        {
          "internalType": "string",
          "name": "",
          "type": "string"
        }
      ],
      "stateMutability": "view",
      "type": "function"
    },
    {
      "inputs": [],
      "name": "totalSupply",
      "outputs": [
        {
          "internalType": "uint256",
          "name": "",
          "type": "uint256"
        }
      ],
      "stateMutability": "view",
      "type": "function"
    },
    {
      "inputs": [
        {
          "internalType": "address",
          "name": "to",
          "type": "address"
        },
        {
          "internalType": "uint256",
          "name": "value",
          "type": "uint256"
        }
      ],
      "name": "transfer",
      "outputs": [
        {
          "internalType": "bool",
          "name": "",
          "type": "bool"
        }
      ],
      "stateMutability": "nonpayable",
      "type": "function"
    },
    {
      "inputs": [
        {
          "internalType": "address",
          "name": "from",
          "type": "address"
        },
        {
          "internalType": "address",
          "name": "to",
          "type": "address"
        },
        {
          "internalType": "uint256",
          "name": "value",
          "type": "uint256"
        }
      ],
      "name": "transferFrom",
      "outputs": [
        {
          "internalType": "bool",
          "name": "",
          "type": "bool"
        }
      ],
      "stateMutability": "nonpayable",
      "type": "function"
    },
    {
      "inputs": [
        {
          "internalType": "address",
          "name": "newOwner",
          "type": "address"
        }
      ],
      "name": "transferOwnership",
      "outputs": [],
      "stateMutability": "nonpayable",
      "type": "function"
    }
  ],
  "bytecode": "0x6080604052346103ea57610cc06020813803918261001c816103ee565b9384928339810103126103ea575161003460406103ee565b9060088252672aa9a21021b7b4b760c11b602083015261005460406103ee565b60048152635553444360e01b602082015282519091906001600160401b0381116102fb57600354600181811c911680156103e0575b60208210146102dd57601f811161037d575b506020601f821160011461031a57819293945f9261030f575b50508160011b915f199060031b1c1916176003555b81516001600160401b0381116102fb57600454600181811c911680156102f1575b60208210146102dd57601f811161027a575b50602092601f821160011461021957928192935f9261020e575b50508160011b915f199060031b1c1916176004555b33156101fb5760058054336001600160a01b0319821681179092556001600160a01b03167f8be0079c531659141344cd1fd0a4f28419497f9722a3daafe3b4186f6b6457e05f80a3620f4240810290808204620f424014901517156101e7576002548181018091116101e757600255335f525f60205260405f208181540190556040519081525f7fddf252ad1be2c89b69c2b068fc378daa952ba7f163c4a11628f55a4df523b3ef60203393a36040516108ac90816104148239f35b634e487b7160e01b5f52601160045260245ffd5b631e4fbdf760e01b5f525f60045260245ffd5b015190505f80610116565b601f1982169360045f52805f20915f5b868110610262575083600195961061024a575b505050811b0160045561012b565b01515f1960f88460031b161c191690555f808061023c565b91926020600181928685015181550194019201610229565b60045f527f8a35acfbc15ff81a39ae7d344fd709f28e8600b4aa8c65c6b64bfe7fe36bd19b601f830160051c810191602084106102d3575b601f0160051c01905b8181106102c857506100fc565b5f81556001016102bb565b90915081906102b2565b634e487b7160e01b5f52602260045260245ffd5b90607f16906100ea565b634e487b7160e01b5f52604160045260245ffd5b015190505f806100b4565b601f1982169060035f52805f20915f5b8181106103655750958360019596971061034d575b505050811b016003556100c9565b01515f1960f88460031b161c191690555f808061033f565b9192602060018192868b01518155019401920161032a565b60035f527fc2575a0e9e593c00f959f8c92f12db2869c3395a3b0502d05e2516446f71f85b601f830160051c810191602084106103d6575b601f0160051c01905b8181106103cb575061009b565b5f81556001016103be565b90915081906103b5565b90607f1690610089565b5f80fd5b6040519190601f01601f191682016001600160401b038111838210176102fb5760405256fe6080806040526004361015610012575f80fd5b5f3560e01c90816306fdde031461069357508063095ea7b31461061157806318160ddd146105f457806323b872dd14610514578063313ce567146104f957806340c10f191461044d57806370a0823114610416578063715018a6146103bb5780638da5cb5b1461039357806395d89b41146102785780639dc29fac146101c1578063a9059cbb14610190578063dd62ed3e146101405763f2fde38b146100b6575f80fd5b3461013c57602036600319011261013c576100cf61078c565b6100d761084f565b6001600160a01b0316801561012957600580546001600160a01b0319811683179091556001600160a01b03167f8be0079c531659141344cd1fd0a4f28419497f9722a3daafe3b4186f6b6457e05f80a3005b631e4fbdf760e01b5f525f60045260245ffd5b5f80fd5b3461013c57604036600319011261013c5761015961078c565b6101616107a2565b6001600160a01b039182165f908152600160209081526040808320949093168252928352819020549051908152f35b3461013c57604036600319011261013c576101b66101ac61078c565b60243590336107b8565b602060405160018152f35b3461013c57604036600319011261013c576101da61078c565b602435906101e661084f565b6001600160a01b0316801561026557805f525f60205260405f205482811061024c576020835f947fddf252ad1be2c89b69c2b068fc378daa952ba7f163c4a11628f55a4df523b3ef938587528684520360408620558060025403600255604051908152a3005b9063391434e360e21b5f5260045260245260445260645ffd5b634b637e8f60e11b5f525f60045260245ffd5b3461013c575f36600319011261013c576040515f6004548060011c90600181168015610389575b602083108114610375578285529081156103595750600114610304575b50819003601f01601f191681019067ffffffffffffffff8211818310176102f0576102ec82918260405282610762565b0390f35b634e487b7160e01b5f52604160045260245ffd5b905060045f527f8a35acfbc15ff81a39ae7d344fd709f28e8600b4aa8c65c6b64bfe7fe36bd19b5f905b828210610343575060209150820101826102bc565b600181602092548385880101520191019061032e565b90506020925060ff191682840152151560051b820101826102bc565b634e487b7160e01b5f52602260045260245ffd5b91607f169161029f565b3461013c575f36600319011261013c576005546040516001600160a01b039091168152602090f35b3461013c575f36600319011261013c576103d361084f565b600580546001600160a01b031981169091555f906001600160a01b03167f8be0079c531659141344cd1fd0a4f28419497f9722a3daafe3b4186f6b6457e08280a3005b3461013c57602036600319011261013c576001600160a01b0361043761078c565b165f525f602052602060405f2054604051908152f35b3461013c57604036600319011261013c5761046661078c565b6024359061047261084f565b6001600160a01b03169081156104e657600254908082018092116104d25760207fddf252ad1be2c89b69c2b068fc378daa952ba7f163c4a11628f55a4df523b3ef915f9360025584845283825260408420818154019055604051908152a3005b634e487b7160e01b5f52601160045260245ffd5b63ec442f0560e01b5f525f60045260245ffd5b3461013c575f36600319011261013c57602060405160068152f35b3461013c57606036600319011261013c5761052d61078c565b6105356107a2565b6001600160a01b0382165f818152600160208181526040808420338552909152909120549193604435939290918101610574575b506101b693506107b8565b8381106105d95784156105c65733156105b3576101b6945f52600160205260405f2060018060a01b0333165f526020528360405f209103905584610569565b634a1406b160e11b5f525f60045260245ffd5b63e602df0560e01b5f525f60045260245ffd5b8390637dc7a0d960e11b5f523360045260245260445260645ffd5b3461013c575f36600319011261013c576020600254604051908152f35b3461013c57604036600319011261013c5761062a61078c565b6024359033156105c6576001600160a01b03169081156105b357335f52600160205260405f20825f526020528060405f20556040519081527f8c5be1e5ebec7d5bd14f71427d1e84f3dd0314c0f7b2291e5b200ac8c7c3b92560203392a3602060405160018152f35b3461013c575f36600319011261013c575f6003548060011c90600181168015610758575b6020831081146103755782855290811561035957506001146107035750819003601f01601f191681019067ffffffffffffffff8211818310176102f0576102ec82918260405282610762565b905060035f527fc2575a0e9e593c00f959f8c92f12db2869c3395a3b0502d05e2516446f71f85b5f905b828210610742575060209150820101826102bc565b600181602092548385880101520191019061072d565b91607f16916106b7565b602060409281835280519182918282860152018484015e5f828201840152601f01601f1916010190565b600435906001600160a01b038216820361013c57565b602435906001600160a01b038216820361013c57565b6001600160a01b0316908115610265576001600160a01b03169182156104e657815f525f60205260405f205481811061083657817fddf252ad1be2c89b69c2b068fc378daa952ba7f163c4a11628f55a4df523b3ef92602092855f525f84520360405f2055845f525f825260405f20818154019055604051908152a3565b8263391434e360e21b5f5260045260245260445260645ffd5b6005546001600160a01b0316330361086357565b63118cdaa760e01b5f523360045260245ffdfea26469706673582212202cbc26ee343d27e4045a1aee024df8d741b34fe49cab54c90b936321bb34f3c164736f6c634300081a0033",
  "linkReferences": {},
  "deployedLinkReferences": {}
}